:020000040800F2
:10000000A050002009030008F3210008EB2100089C
:10001000EF210008A71F00089B2700080000000030
:10002000000000000000000000000000D5230008D0
:100030001920000800000000A92200081925000866
:1000400023030008230300082303000823030008F8
:1000500023030008230300082303000823030008E8
:1000600023030008230300082303000823030008D8
:1000700023030008230300082303000823030008C8
:1000800023030008230300082303000823030008B8
:1000900023030008230300082303000823030008A8
:1000A0002303000885250008230300082303000814
:1000B0002303000823030008230300082303000888
:1000C0002303000823030008230300082303000878
:1000D00023030008D9250008230300082303000890
:1000E0002303000823030008230300082303000858
:1000F0002303000823030008230300082303000848
:100100002303000823030008230300082303000837
:100110002303000823030008230300082303000827
:100120002303000823030008230300082303000817
:100130002303000823030008230300082303000807
:1001400023030008230300082303000823030008F7
:1001500023030008230300082303000823030008E7
:1001600023030008230300082303000823030008D7
:1001700023030008230300082303000823030008C7
:10018000230300082303000800F002F800F0ACF895
:100190000AA090E8000C82448344AAF10107DA45E2
:1001A00001D100F0A1F8AFF2090EBAE80F0013F088
:1001B000010F18BFFB1A43F001031847C099030051
:1001C000E0990300103A24BF78C878C1FAD85207E2
:1001D00024BF30C830C144BF04680C6070470000C1
:1001E0000023002400250026103A28BF78C1FBD840
:1001F000520728BF30C148BF0B6070474B1C012B12
:1002000098BF70472DE9F003911C9B08B1F804805A
:10021000B1F802900A8831F802CC8044814402444B
:100220008444D9F80070D8F800601568DCF8004004
:10023000C9F80060C8F80070CCF800501460D9F814
:100240000470D8F804605568DCF80440C9F804600C
:10025000C8F80470CCF80450546008315B1ED5D146
:10026000BDE8F00370474B1C012B98BF70472DE988
:10027000F003911C9B08B1F80480B1F802900A8841
:1002800031F802CC00EB580800EB590900EB5202A0
:1002900000EB5C0CD9F80070D8F800601568DCF849
:1002A0000040C9F80060C8F80070CCF80050146035
:1002B00008315B1EDFD1BDE8F0037047662904F00A
:1002C0003B83642900F0F082002070471FB504F0E2
:1002D0007FFA00F0A3FD04000020002103F014FCCD
:1002E000E0601FBD10B510BD00F0B4FE1146FFF771
:1002F000EDFF03F015FA00F0EBFE03B4FFF7F2FF99
:1003000003BC02F064FA000009488047094800472E
:10031000FEE7FEE7FEE7FEE7FEE7FEE7FEE7FEE7B5
:10032000FEE7FEE704480549054A064B7047000012
:100330001D25000889010008A0280020A0500020E9
:10034000A0300020A03000202DE9FF4F2DED108BB4
:1003500082B09FEDFEFA0B461C46DB084FF0000C06
:100360000CEB030505EB030808EB030909EB030697
:1003700006EB030A00EBCC0700EBC60697ED001A6C
:10038000D6ED000A0AEB030B00EBC50500EBCA0A29
:1003900031EE200A71EE601A95ED002ADAED000ABE
:1003A0000BEB030E00EBC80832EE201A00EBCB0B70
:1003B00032EE602AD8ED002ADBED000A00EBC90915
:1003C00000EBCE0E99ED003A9EED004A72EEA03A97
:1003D00072EEE02A73EE040A33EE443A70EE636A7A
:1003E00070EE233A31EE600A71EE200A33EEA01A65
:1003F00073EEE00A87ED001AC6ED000A97ED011AC8
:10040000D6ED010AD5ED013A98ED014A31EE206AA8
:1004100071EE600A9AED011A99ED015A73EE814A64
:1004200073EEC13A9BED011A34EE017A34EE411AB3
:100430009EED014A75EE045A35EE444A36EE475AAF
:1004400036EE076A34EEE57A74EEA54A76EE245A63
:1004500076EE644AC7ED015AC6ED014A76EE874A48
:10046000C8ED004A76EEC74ACBED004A75EE404A29
:1004700035EE000AC8ED014A8BED010A32EE430A5F
:1004800032EE032A20EE0F0A62EE0F4A33EEC42A40
:10049000A4448C4522EE0F3A33EE842A30EEC34A50
:1004A00062EE0F3A30EE833A31EEC02A31EE800A26
:1004B00071EE630A31EE231A72EEE41A72EEA42A88
:1004C00070EE013A30EE410AC5ED003A8EED000AB9
:1004D00032EE200A8AED000A32EE600A89ED000A47
:1004E00033EE620A85ED010A33EE220A8EED010A2F
:1004F00034EE610A8AED010A34EE210A89ED010A1F
:10050000FFF42EAF082B3FBF02B0BDEC108B04B040
:10051000BDE8F08F4FF0000CCDF804C04FF0010C97
:10052000CDF800C0DDF804C0159DAC444FEA8C0541
:1005300005EB0C07CDF804C007EB0C094FEA4C089B
:1005400008EB0C0609EB0C0A02EBCC0C02EBC8081A
:1005500002EBC60602EBC50502EBC70702EBC909B1
:1005600002EBCA0A9CED00DA9CED018AD8ED00CAC4
:1005700096ED00CAD5ED00BA97ED00BAD9ED00AA04
:10058000DAED008AD8ED017A96ED01AA95ED017AAF
:10059000D7ED016A99ED016ADAED019ADDF800C044
:1005A0000CEB0307FD1805EB030A0AEB030808EB45
:1005B000030606EB030B00EBCC0900EBC808D9EDF2
:1005C000000A98ED000A00EBC70700EBC606D7ED5E
:1005D000001A96ED001A70EE803A0BEB030E70EEE7
:1005E000C00A31EE810A00EBC50500EBCB0B31EE02
:1005F000C11AD5ED001A9BED002A00EBCA0A00EBE8
:10060000CE0E31EE824A71EEC21A9AED002ADEED6C
:10061000002A32EE223A32EE622A73EEC42A73EED8
:10062000843A30EE435A30EE030A33EE803A73EEEA
:10063000C0DA89ED003A99ED010A98ED013AD7ED5B
:10064000013A95ED014A70EE03EA30EE433A96ED39
:10065000010A9AED01EADEED014A33EE809A73EE6B
:10066000C03A9BED010A74EE005A34EE404A3EEE69
:10067000240A7EEE644A3EEEE5EA7EEEA55A79EE65
:1006800040EA39EE009A32EEAE0A72EEEE2A75EECC
:1006900089EA35EEC99A7EEE455AC9ED01EA3EEE89
:1006A000055A2BEEADEA67EE09EA2BEE899A67EE62
:1006B0002DDA3EEE2EEA39EE6D9A88ED00EA67EE0D
:1006C000A5DA88ED019A2CEE809A6CEEA55A27EEF9
:1006D000800A39EE2D9A35EEC00A85ED009A66EE55
:1006E000055A85ED010A2AEEA20A2AEE855A66EE1F
:1006F000222A30EE250A8BED000A35EE620A73EEEF
:10070000A42A8BED010A31EE420A31EE021A33EED1
:10071000E42A62EE8F3A20EE0F0A21EE0F1A22EE43
:100720000F2A70EEC02A30EE800A71EEC10A71EE17
:10073000811A33EE421A33EE022A34EE633A34EE73
:10074000234A70EE043A30EE444A01E0F304353FA8
:1007500072EE834A72EEC32A32EE613A32EE210A19
:1007600071EE601A71EE200A2DEE232A28EE031A8C
:100770002DEE033A68EE233AA44432EE011A28EE35
:10078000842A8C4587ED001A33EE631A29EE843AE9
:1007900087ED011A29EE801A28EE800A32EE011A3E
:1007A00030EE430A26EEA42A8EED001A8EED010AE1
:1007B0002BEE240A26EEA11A6BEE211A30EE010A66
:1007C0002CEE221A86ED000A31EEC20A6AEE221AD7
:1007D00086ED010A2AEE200A6CEE200A31EE000AAC
:1007E0008AED000A30EEE10A8AED010AFFF4D8AE84
:1007F000DDF800C00CF1010CCDF800C063453FF6F8
:1008000091AEDDF854C04FF6FF7404EACC0CCDF87D
:1008100054C0072B3FF6A0AD02B0BDEC108B04B066
:10082000BDE8F08F704700000FB4044910B503AA6B
:10083000029800F0E1FA10BC5DF814FB3C000020C7
:100840002DE9F0410E460446002020622046E16872
:10085000884730B3252805D0D4E901219047206A84
:10086000401CF2E7E168204600278847050018D0C1
:10087000A5F14100192802D820354FF4006732460F
:10088000294620462760FFF719FD40B1012804D012
:10089000F61D26F007060836D8E7361DD6E72846A7
:1008A000DAE7206ABDE8F0812DE9F0410646002430
:1008B00010687529314616A510D0AFF300800028C6
:1008C00002DA404213A507E031688A0701D512A574
:1008D00002E0490704D511A5012401E0AFF300802F
:1008E00000210A2206F1240709E0B0FBF2FCB0FB6C
:1008F000F2F302FB1C00303078541846491C0028E3
:10090000F3D123462A463046BDE8F04100F00CB84A
:10091000000000002D0000002B000000200000005F
:1009200070477047704770472DE9F0470D4699466C
:100930009246044600F124080168880604D5E0695F
:1009400021F01001216000E00120A84201DD471BD9
:1009500000E00027A1697A1902EB0900081AA061DA
:100960002078C00602D42046AFF30080002608E0BD
:10097000D4E901211AF806009047206A401C761C31
:1009800020624E45F4DB2078C0060AD52046AFF33E
:10099000008006E0D4E9012130209047206A401C05
:1009A0002062381EA7F10107F4DC07E0D4E9012139
:1009B00018F805009047206A401C2062281EA5F107
:1009C0000105F3DC2046AFF300802078000602D555
:1009D0000220BDE8F0870120FBE770472DE9FF4FBB
:1009E0000C461E464FF0FF378BB0D2E90001DDF810
:1009F00060800A908A46C1F30A5505B93D46002138
:100A0000084603F089FFBAF1000F00F4400005DA50
:100A100000EB80004FF4400101EA50004FEA90598A
:100A2000B9F1010F00DDB9460A9850EA4A000ED02C
:100A300044F61050A5F2FF3545432F14B8F1000FCE
:100A40001ED07542291E1EDDC9F100021CE0B8F15E
:100A5000010F4FF0000001D0302103E0F24305E028
:100A60002154401CB042FBDB3046002200212154BF
:100A70000B99C1F80880C1E900200FB0BDE8F08FE4
:100A8000BD1B6D1CDEE74A4600DA694206A800F08D
:100A900067FA06AB93E8070003AB83E8070050460C
:100AA0000A9900F0DAFB8DE80700A0F500501F3826
:100AB00000900398002D0ADD42F21F014A460844C7
:100AC000002303A90390684600F043FE09E0A0F567
:100AD00000504A461F38002303A90390684600F0DF
:100AE0004DFE8DE807000004000C03D04FF0FF30EE
:100AF000410800E01046B8F1000F03D00022009238
:100B000015461EE0751E05D400F08CF93032625592
:100B10006D1EF9D5B3460122084302D000227F1C86
:100B200004E02078302801D100227F1E002A099796
:100B300084D01DE0112D07DA00F074F930326255CF
:100B40006D1C50EA0102F5D1084302D00098C8B1EB
:100B50000EE00021681E05E0235C625C63542254B1
:100B6000401E491C8142F7DBAB46A81B401E099082
:100B7000002004F80B000B98099AC0F80880C0E91F
:100B8000002B7AE711264FF0000857E72DE9F04FC8
:100B900088460446D21D22F0070191B0D1E9000138
:100BA000CDE90A0101F0FBFD02460B98C00F01D010
:100BB0002D2007E02068810701D52B2002E02021AD
:100BC00001EAC000032A099001D0072A05DB034689
:100BD0004146204600F084F90BE12078800601D5DB
:100BE000E06900E00620B8F1650F814606D0B8F153
:100BF000660F18D0B8F1670F70D131E00020B9F15D
:100C0000110F009001DB112301E009F101030AAA91
:100C100001A90CA8FFF7E2FEDDE90C70002609F13E
:100C20000105834647E001204B4600904FF0004706
:100C30000AAA01A90CA8FFF7D1FEDDE90DB00C99B5
:100C40005D46002610B909F101000D18B9EB050049
:100C500003D4C0F1FF3609F10105A5EB09002BE033
:100C6000B9F1010F01DA4FF001090020B9F1110FBC
:100C70000090484601DD112300E003460AAA01A9BD
:100C80000CA8FFF7ABFEDDE90C704D46002683464D
:100C9000207800070AD4AB4500DA5D4601A8012D93
:100CA00004DD411911F8011C302907D04F4502DA43
:100CB00017F1040F04DA012082460FE06D1EEEE703
:100CC000002F02DCED1B3E4403E0781CA84200DD4F
:100CD0007D1CB81B00F1010A4FF000472078000787
:100CE00003D4AA4501DB4FF0FF3A0021B7F1004FD2
:100CF0000DF143088DF8431024D002202B23002F40
:100D000001DA7F422D230A21021EA0F1010000DC3E
:100D10005FB197FBF1FC97FBF1F201FB1C7C1746DE
:100D20000CF1300C08F801CDEEE7A8F101000370DA
:100D30002188090501D5452100E06521A0F10108C0
:100D400000F8011C09980FA9A1EB0807FF1D00B1CD
:100D50000120411901EBEA70A1693844081A401ECC
:100D6000A0612078C00602D42046AFF30080099825
:100D700028B1D4E901219047206A401C20622078E4
:100D8000C00622D52046AFF300801EE0002E04DB13
:100D9000B34502DD01A8805D00E03020D4E90121E7
:100DA0009047206A401C2062761CAAF101005FEA8D
:100DB000000A0AD100F032F8C0680168405CD4E94A
:100DC00001219047206A401C2062281EA5F10105E0
:100DD000DCDC07E0D4E9012118F8010B9047206A18
:100DE000401C2062381EA7F10107F3DC2046AFF358
:100DF0000080032011B041E6074B70B50D467B44DF
:100E000000F05BF80446284600F01CF910B14FF0E2
:100E1000FF3070BD204670BD672800000048704755
:100E20006028002030B5B0F10A024FEA900E71F14F
:100E300000034EEA817EB0EB0E0061EB91014FEAB8
:100E4000101E4EEA017E10EB0E0041EB11114FEA2D
:100E5000102E4EEA016E10EB0E0041EB11214FEA0D
:100E6000104E4EEA014E10EB0E0041EB11414018BE
:100E700041F100014FEAD00040EA41704FEAD10150
:100E800010EB80054FEA810444EA907444EB0104BE
:100E90006D1944EB0404521BA3414FF0000348BFFB
:100EA0000A3200D530BD401C41F1000130BD0000C8
:100EB00001694A1C02610878704700B58FB0CDE91E
:100EC00001310021059105497944CDE9031011460E
:100ED0006846FFF7B5FC0FB000BD0000E5FFFFFF5F
:100EE0002DE9F0411F46044603260168072A01F454
:100EF000006004DB08B116A505E016A503E008B103
:100F000015A500E015A521F010002060A069C01E05
:100F1000A0610FB1401EA0612046AFF300804FB129
:100F2000D4E9012138469047206A401C2062C01C49
:100F3000206206E0206AFAE7D4E9012115F8010BE6
:100F40009047761EF8D22046AFF30080BDE8F081CE
:100F50004E414E006E616E00494E4600696E66005D
:100F60002DE9F047814616468AB0354878440DC8C9
:100F70008DE80D0032487844801C03AC0DC884E82D
:100F80000D0041F69B300844372190FBF1F290FBB5
:100F9000F1F5A5F1800501FB12041B3C02D564426A
:100FA000012000E00020DFF898A080460027FA44E6
:100FB000AAF1BE0A0EE0E0070AD03246684607EB07
:100FC000470101230AEB810100F0D8FB8DE80700FF
:100FD00064107F1C002CEED1194F7F44AE3F19E006
:100FE000E80715D007EB04100DF1180A90E80E0081
:100FF0008AE80E00C068F04201D198190890324684
:10100000012306A903A800F0B9FB03AB83E807009E
:101010006D10641C002DE3D14FF001033246694688
:10102000B8F1000F03A802D000F093FB01E000F03C
:10103000A5FBC9E90001C9F808200AB0BDE8F0879E
:10104000F48B0300007B00F080007047004870477D
:10105000402800207546FFF7F9FFAE4605006946B7
:10106000534620F00700854618B020B5FFF75AF91F
:10107000BDE820404FF000064FF000074FF0000899
:101080004FF0000B21F00701AC46ACE8C009ACE81A
:10109000C009ACE8C009ACE8C0098D467047000043
:1010A0001FB584B000200A9C06AB04AA02A90094D4
:1010B000AFF3008018B1DDE9020108B010BD0348AC
:1010C000204000F04FF800200146F6E70000207CA9
:1010D00010B50446AFF300802046BDE81040FFF78E
:1010E0000CB900004FF0013C50F8042B51F8043BC0
:1010F0009A4221D1A2EB0C03934313EACC1317D1EC
:1011000050F8042B51F8043B9A4215D1A2EB0C0382
:10111000934313EACC130BD150F8042B51F8043B42
:101120009A4209D1A2EB0C03934313EACC13DBD010
:101130004FF00000704700BFD01A01BAB1FA81F138
:1011400001F0180122FA01F0CB40C1F12001DBB21D
:10115000C0B2C01A2CFA01F3D11A914311EAC3119B
:10116000E6D1704710B500F009F8BDE81040AFF3C4
:101170000080002801D001F02ABB704710B502287A
:1011800003D0410103D50DA112E0002010BD0101E3
:1011900001D50FA10CE0C10001D511A108E081002B
:1011A00001D512A104E0400001D513A100E0002107
:1011B00015A000F039F8012010BD0000496E7661DD
:1011C0006C6964204F7065726174696F6E00000015
:1011D000446976696465204279205A65726F00001F
:1011E0004F766572666C6F7700000000556E64651F
:1011F00072666C6F77000000496E657861637420D9
:10120000526573756C7400005349474650453A2047
:1012100041726974686D657469632065786365708F
:1012200074696F6E3A20000070B505460C460A20BE
:1012300000E06D1C01F0CDFA35B128780028F8D116
:1012400002E0641C01F0C5FA14B120780028F8D13E
:10125000BDE870400A2001F0BCBA5FEA400C08BF4C
:1012600091F0000F4FEA8C234FEAC12243EA51511B
:101270004FEA1C5018BF00F5F0404FEA300018BF8D
:1012800041F000415FEA6C5C00F02980BCF1FF3F57
:1012900008BF40F080407047130C06BF12044FF0A7
:1012A000100C4FF0000C130E04BF12020CF1080CCE
:1012B000130F04BF12010CF1040C930F04BF920032
:1012C0000CF1020CD30F04BF52000CF1010C1146BB
:1012D0004FF00002A0F11F00A0EB0C00704711F0CE
:1012E000004F08BF704731F000413FF4D5AF0B0C01
:1012F00006BF09044FF0100C4FF0000C0B0E04BF9A
:1013000009020CF1080C0B0F04BF09010CF1040CCD
:101310008B0F04BF89000CF1020CCB0F04BF4900F6
:101320000CF1010CCCF12003A0EB0C0022FA03F32A
:1013300002FA0CF241EA030100F10100704720F0CB
:101340007F4C80EA030023F07F47ACEB070303F5F3
:101350007C5300F0004003F1FF032DE980494FEA80
:10136000154B09B44FEA144325EA0B4E24EA03480F
:101370000FF2042606EB132749083E785FEA320293
:1013800003FB0667C7F5000707FB06F64FEA54376D
:101390004FEAD64606F1020607FB066CCCF1005C6C
:1013A0004FEA1C472CEA074C07FB06F40CFB06F53A
:1013B00004EB15464FEA961634BF00204FF000406C
:1013C0004FEAD13706FB07FC4FEA1C4C0CFB0BF72E
:1013D000D21B03FB0CF761EB07010CFB0EF7B0EB24
:1013E000074072EB17420CFB08F734BFA2EB074231
:1013F000B2EB074261EB17414FEA0C444FEA910709
:1014000006FB07FC4FEA1C4C0CFB0BF7B0EBC7408C
:1014100072EB573203FB0CF734BFA2EBC742B2EBBF
:10142000C74261EB57310CFB0EF7B0EBC70072EB14
:1014300057720CFB08F734BFA2EBC702B2EBC7022E
:1014400061EB5771039F4FEA816141EA921104EB0E
:10145000CC044FEAD1374FEA826206FB07FC42EA2E
:1014600090124FEA80604FEA1C4C0CFB0BF7D21B2A
:1014700003FB0CF761EB07010CFB0EF7B0EB074029
:1014800072EB17420CFB08F734BFA2EB0742B2EB3A
:10149000074261EB17414FEA8C554FEA910704EB85
:1014A0009C2406FB07FC4FEA1C4C0CFB0BF7B0EB33
:1014B000C74072EB573203FB0CF734BFA2EBC742B5
:1014C000B2EBC74261EB57310CFB0EF7B0EBC70034
:1014D00072EB57720CFB08F734BFA2EBC702B2EBFA
:1014E000C70261EB577115EB4C254FEA816141EA68
:1014F00092114FEA82624FEAD13742EA901206FB1C
:1015000007FC44F100044FEA80604FEA1C4C0CFBDE
:101510000BF7D21B03FB0CF761EB07010CFB0EF77B
:10152000B0EB074072EB17420CFB08F734BFA2EB9D
:101530000742B2EB074261EB174115EB1C154FEA6E
:10154000813141EA92414FEA823242EA90424FEAC7
:1015500080304FEA0C7644F1000448EA03434EEA37
:101560000B484FF0000EB2EB080C71EB030724BFE1
:10157000624639464EEB0E0E4FF0000B00185241FA
:1015800049414BEB0B0BB2EB080C71EB03077BF102
:10159000000B24BF624639464EEB0E0E4FF0000B97
:1015A0000018524149414BEB0B0BB2EB080C71EBAD
:1015B00003077BF1000B24BF624639464EEB0E0E4B
:1015C00051EA020718BF46F0010616EB0E7655F1F8
:1015D000000254F1000103D5BDE88901BDE800888F
:1015E000BDE88901BDE80048B619524141EB01014F
:1015F000A3F10103704780807F7E7D7C7B7A7978C0
:10160000777676757473727171706F6E6E6D6C6CC7
:101610006B6A6A6968686766666564646363626169
:101620006160605F5F5E5E5D5D5C5C5B5B5A5A59EA
:101630005958585757565655555554545353525256
:101640005251515050504F4F4F4E4E4D4D4D4C4CAE
:101650004C4B4B4B4A4A4A494949484848474747F7
:101660004746464645454544444444434343434234
:10167000424242414141002B9C4630D477002BD05E
:101680001CB54FEA370703B44FF010004FF01001BC
:10169000BAF1000F06D0BCF1000FDCBF40F008002B
:1016A00040F0080103F038F90FBCBDE810400BF121
:1016B000010BBBF1010F08BF5FEA170722BF12F150
:1016C000010211F101014FF0004143F1000300F06C
:1016D000004043EA00007047F9D35708D0E746EAD4
:1016E000064613F1400F4FEA16461FDD13F1200F97
:1016F000DFBF16430A46002120335B42BED0C3F150
:10170000200746EA064602FA07F74FEA164646EA77
:101710000706C3F1200722FA03F201FA07F721FABC
:1017200003F14FF0000342EA0702A7E746EA020688
:1017300046EA06464FEA164646EA0106BCBF46EAB6
:101740000646360C4FF000034FF000024FF0000148
:1017500094E72DE9804C9A46934670B491E838009E
:1017600007C831EA400C48BF34EA430C03D5FFF701
:10177000E6FDFFF780FFF0BCBDE8008C2DE9804C52
:101780009A46934670B491E8380007C810F0804F2D
:1017900008BF13F0804F03D100F005F8FFF76BFF8F
:1017A000F0BCBDE8008C20F07F4780EA030023F006
:1017B0007F4C07EB0C03A3F57C5300F00040A3F132
:1017C000FE0392F0000F00F0B38095F0000F00F0E0
:1017D00077802DE901494FEA11404FEA144621EA8A
:1017E000004800FB06FC24EA064708FB06F607FB58
:1017F00008F800FB07F718EB06484CEB164C4FEACD
:10180000124B18EB07484FEA15464CEB174022EAFB
:101810000B4E0BFB06FC25EA06470EFB06F607FB04
:101820000EFE0BFB07F71EEB064E4CEB164C4FF073
:1018300000061EEB074E4CEB174B18EB0B0840F164
:10184000000018EB0E0B58EB000840F100008F1A57
:101850004FF000013CBFC943661B14BFB5EB040C3D
:1018600000213CBFC943F61B4FEA17444EEA8E0ED7
:1018700027EA04454FEA1C4704FB07622CEA074CA1
:1018800005FB07F70CFB05F604FB0CFC16EB074603
:1018900042EB174216EB0C4642EB1C421BEB0606D2
:1018A00058EB0202414146EA9E0601D5BDE8018996
:1018B000B619524141EB0101A3F10103BDE80189D1
:1018C0004FEA14454FEA114724EA054621EA074C3E
:1018D00005FB07F406FB07F70CFB06F105FB0CFC08
:1018E00011EB074144EB17444FEA124711EB0C414F
:1018F00044EB1C4422EA074C05FB07F206FB07F702
:101900000CFB06F605FB0CFC16EB074642EB1742F8
:1019100016EB0C4642EB1C456A1854F1000148BF17
:101920007047B619524141EB0101A3F10103704721
:1019300095F0000F37D04FEA11424FEA144721EAE1
:10194000024624EA074C02FB07F106FB07F70CFBF3
:1019500006F402FB0CFC14EB074441EB17414FEA81
:10196000154714EB0C4441EB1C4125EA074C02FBE4
:1019700007F506FB07F70CFB06F602FB0CFC16EB63
:10198000074645EB174516EB0C4645EB1C42121972
:1019900051F1000148BF7047B619524141EB0101B6
:1019A000A3F1010370474FEA14454FEA114724EAB7
:1019B000054621EA074C05FB07F106FB07F70CFB80
:1019C00006F24FF0000605FB0CFC12EB074241EB60
:1019D000174112EB0C4251EB1C4148BF7047921863
:1019E00041EB0101A3F101037047002001E0411C1C
:1019F00088B20128FBDB70471CB50121022000F0F2
:101A000055FC4FF47F40009002208DF80500012026
:101A10008DF8040000208DF8060001208DF80700E5
:101A20006946024800F072FB1CBD00000004024041
:101A30002DE9F0472DED068BB0EE408AF0EE608A7E
:101A400007460C4691469FED310BB0EE40AAF0EEF2
:101A500060AAB0EE489AF0EE689A9FED2E0B53EC18
:101A6000102B51EC190B02F065F841EC190B53ECFB
:101A70001A2B51EC190B02F0A3FA41EC190B51ECA3
:101A8000190B02F015FA80464546C5F30D054FEADD
:101A9000A836C6F30D0649F4404A4FF4807000F0B2
:101AA000B3F84FF4045000F0AFF867B945F480453F
:101AB00046F48046284600F0A7F8304600F0A4F827
:101AC000504600F0A1F8012F0CD145F4004546F432
:101AD0000046284600F098F8304600F095F8504649
:101AE00000F092F81CB942F2020000F08DF8022CCE
:101AF00003D142F2280000F087F8012C02D16003E4
:101B000000F082F8BDEC068BBDE8F08700000040D5
:101B1000E17A64410000000080842E412DE9F04705
:101B20002DED068BB0EE408AF0EE608A07460C463B
:101B300091469FED310BB0EE40AAF0EE60AAB0EEF8
:101B4000489AF0EE689A9FED2E0B53EC102B51EC57
:101B5000190B01F0EFFF41EC190B53EC1A2B51EC70
:101B6000190B02F02DFA41EC190B51EC190B02F094
:101B70009FF980464546C5F30D054FEAA836C6F3E2
:101B80000D0649F4404A4FF4807000F079F84FF4A4
:101B9000045000F075F867B945F4804546F4804676
:101BA000284600F06DF8304600F06AF8504600F024
:101BB00067F8012F0CD145F4004546F4004628464D
:101BC00000F05EF8304600F05BF8504600F058F840
:101BD0001CB942F2020000F053F8022C03D142F289
:101BE000280000F04DF8012C02D1600300F048F805
:101BF000BDEC068BBDE8F08700000040E17A64414F
:101C00000000000080842E4170B504464FF48061CE
:101C10001A4800F0E8FA4FF40061184800F0E3FABF
:101C20004FF40061154800F0DCFA00251EE004F4D2
:101C3000004028B14FF40071104800F0D4FA04E0DD
:101C40004FF400710D4800F0CCFAFFF7CEFE4FF4D0
:101C500080610A4800F0C5FAFFF7C7FE4FF48061C3
:101C6000064800F0C0FA6400681CC5B2102DDEDB27
:101C70004FF40061014800F0B6FA70BD0004024064
:101C800070B504464FF480411A4800F0ACFA4FF4A6
:101C90000041184800F0A7FA4FF40041154800F041
:101CA000A0FA00251EE004F4004028B14FF40051D2
:101CB000104800F098FA04E04FF400510D4800F08D
:101CC00090FAFFF792FE4FF480410A4800F089FA3B
:101CD000FFF78BFE4FF48041064800F084FA640061
:101CE000681CC5B2102DDEDB4FF40041014800F046
:101CF0007AFA70BD0004024000B59BB0012108468D
:101D000000F0D4FA4020199003208DF868000020DC
:101D10008DF86B0019A9384800F0F8F90121880501
:101D200000F0C4FA35480B9035480C9000200D9017
:101D30004FF400700E9000200F904FF480601090D0
:101D40004000119080001290002013904FF400305A
:101D500014900020159001201690002017901890E4
:101D60000A900AA9274800F02BF90121254800F024
:101D70001CF90121080200F0A9FA002000904FF49C
:101D800080300190002002904FF47060039068460C
:101D900000F046F804A800F0FCF8002004908DF84C
:101DA000140001208DF8150000200690079008907F
:101DB00001208DF8240004A910484C3800F05EF88A
:101DC0000223012206210D484C3800F081F8012140
:101DD0000A484C3800F047F8012108484C3800F018
:101DE00037F8012105484C3800F00EF803484C380C
:101DF00000F0CAF81BB000BD000002404C200140BA
:101E0000402400201064024021B1826842F00102A7
:101E1000826003E0826822F0010282607047000065
:101E20000021084A1168084A1140D0E900231A43EA
:101E300083681A43C3681A431143044AC2F804135F
:101E40007047000004230140E030FCFF0020014007
:101E500021B1826842F48072826003E0826822F4D9
:101E600080728260704721B1826842F400728260A1
:101E700003E0826822F400728260704730B5024647
:101E8000002000235068104C20400D790C6844EA73
:101E900005242043506090680C4C2040D1E9035445
:101EA0002C438D682C434D7944EA450420439060CF
:101EB000D06A20F470000C7D641EE4B2234340EA33
:101EC0000350D06230BD0000FFFEFFFCFDF7FFC0F5
:101ED000F0B504460D4600200021092D11DDE06813
:101EE000A5F10A0606EB4607072606FA07F188431E
:101EF000A5F10A0606EB460603FA06F10843E06080
:101F00000CE0206905EB4507072606FA07F1884330
:101F100005EB450603FA06F108432061072A0FDAAC
:101F2000606B561E06EB86071F2606FA07F18843EC
:101F3000561E06EB860605FA06F10843606322E0AA
:101F40000D2A0FDA206BD61F06EB86071F2606FA2E
:101F500007F18843D61F06EB860605FA06F108430B
:101F6000206310E0E06AA2F10D0606EB86071F264B
:101F700006FA07F18843A2F10D0606EB860605FA7C
:101F800006F10843E062F0BD816841F08041816064
:101F9000704700210160017141718160C160016180
:101FA00001210175704700BFFEE721B1026842F0D0
:101FB0000102026003E0026822F001020260704741
:101FC00010B500220268134B1A40CC680B682343FB
:101FD0004C6923438C692343CC6923430C6A234314
:101FE0004C6A23438C6A23434C6B23438C6B2343FF
:101FF0001A430260426922F00702D1E90B342343FD
:102000001A4342610B6943604B6883608B68C3600D
:1020100010BD00003F801CF07047000000B587B085
:102020000121084600F042F90121102000F04EF98C
:1020300007220A21214800F0B1F8072209211F4890
:1020400000F0ACF800208DF81A0001208DF81B007C
:1020500002208DF819008DF818000002059005A9DE
:10206000164800F053F802208DF818004002059041
:1020700005A9124800F04AF84FF4E1300190002021
:10208000ADF80800ADF80A00ADF80C00ADF810008E
:102090000C20ADF80E0001A9094800F00BFB00F080
:1020A000A9F8012240F22551054800F0DDFA01218E
:1020B000034800F0A3FA07B000BD00000000024092
:1020C0000010014070B504460F4800684FF47A7163
:1020D000B0FBF1F6304600F0F5F9002508E000BF4E
:1020E0004FF0E020006900F480300028F8D06D1C2B
:1020F000A542F4D34FF0E020006920F001004FF03A
:10210000E021086170BD000000000020F0B50A4623
:1021100000210023002400BF3DE0012505FA01F362
:10212000156805EA03049C4234D105684F00032674
:10213000BE40B543056015794E00B540066835438D
:1021400005601579012D02D01579022D16D185680B
:102150004F000326BE40B543856055794E00B5401B
:10216000866835438560456801268E40B5434560E5
:10217000456896798E40B6B235434560C5684F00D4
:102180000326BE40B543C560D5794E00B540C6684C
:102190003543C560491C1029BFD3F0BDF0B50023FD
:1021A00000244D07ED0E02FA05F3CE1000F12005D4
:1021B00055F826504E07F70E0F26BE40B543CF10F8
:1021C00000F1200646F82750CE1000F1200555F802
:1021D000265045EA0304CE1000F1200545F82640BC
:1021E000F0BD418370470183704700BFFEE700BF29
:1021F000FEE7704708B54FF4A06000F04BF82520CB
:102200008DF8000001208DF801008DF802008DF896
:102210000300684600F002F808BD000070B5002118
:1022200000230F22C4781CB3174C246804F4E06424
:10223000C4F5E064C4F30721C1F10404E3B20A4128
:1022400044789C40E1B28478144021430C07210E6D
:102250000E4C05786155047804F01F050124AC404C
:1022600005786D11AD0005F1E025C5F8004109E0E4
:10227000047804F01F050124AC40054D0678761162
:1022800045F8264070BD00000CED00E000E400E0E1
:1022900080E100E002490143024A116070470000FA
:1022A0000000FA050CED00E07047000029B1064A75
:1022B00012680243044B1A6004E0034A1268824326
:1022C000014B1A60704700003038024029B1064ABD
:1022D00012680243044B1A6004E0034A1268824306
:1022E000014B1A607047000044380240F0B50021ED
:1022F00000220024022500260223324F3F6807F007
:102300000C0121B1042905D0082937D105E02E4F51
:10231000076036E02D4F076033E02A4F3F1F3F68CC
:10232000C7F38056274F3F1F3F6807F03F036EB14A
:10233000264FB7FBF3F7DFF88CC0ACF1040CDCF8E8
:1023400000C0CCF3881C07FB0CF40CE01E4FB7FB5D
:10235000F3F7DFF870C0ACF1040CDCF800C0CCF38C
:10236000881C07FB0CF4174F3F1F3F68C7F301475A
:102370007F1C7D00B4FBF5F7076002E0124F076099
:1023800000BF00BF0F4F3F6807F0F0010909104F71
:102390007A5C0768D74047600A4F3F6807F4E0510E
:1023A000890A0B4F7A5C4768D7408760054F3F68C2
:1023B00007F46041490B064F7A5C4768D740C76015
:1023C000F0BD0000083802400024F40000127A003A
:1023D0002C000020704700000CB5002001900090F8
:1023E0003448006840F480303249086000BF31480A
:1023F000006800F4003000900198401C01900098A3
:1024000018B90198B0F5A04FF1D12A48006800F43E
:10241000003010B10120009001E0002000900098F1
:10242000012846D123484030006840F080502149BF
:10243000403108602048006840F440401E49086070
:102440001C48083000681B490831086008460068CD
:1024500040F4004008600846006840F4A05008605E
:102460001648091F0860081F006840F08070091FA7
:10247000086000BF0F48006800F000700028F9D025
:1024800040F205700E4908600A480830006820F0E4
:1024900003000849083108600846006840F002005F
:1024A000086000BF03480830006800F00C000828EE
:1024B000F8D10CBD003802400070004008544007BD
:1024C000003C024030B50146481EB0F1807F01D388
:1024D000012030BD481E4FF0E022506150170F22FE
:1024E000002807DA13071D0E094B00F00F04241F04
:1024F0001D5503E013071C0E064B1C5400BF0020A3
:102500004FF0E0229061072010610020E1E7000019
:1025100018ED00E000E400E07047000010B5154839
:10252000006840F47000134908601348006840F0E8
:1025300001001149086000200F49083108600E4869
:1025400000680E4908400C4908600D48091D0860E4
:10255000081F006820F48020091F08600020064939
:102560000C310860FFF738FF4FF0006001498039F7
:10257000086010BD88ED00E000380240FFFFF6FE65
:102580001030002410B50121064800F014F838B1CD
:10259000642105A0FEF748F90121024800F008F87F
:1025A00010BD00000000014025640D0A000000007D
:1025B000CA430282704730B502460020002300243F
:1025C000158A05EA0103958905EA010413B10CB1E6
:1025D000012000E0002030BD10B540F22551064832
:1025E00000F018F838B1044800F0CEF8C4B2214623
:1025F000014800F0CEF810BD0010014021B18289E1
:1026000042F40052828104E082894DF6FF731A4041
:102610008281704770B50246002400230025002007
:1026200040F66A16B14200D100BFC1F3421501F075
:102630001F03012606FA03F3012D02D196893340C8
:1026400006E0022D02D1168A334001E0968A33401B
:102650000C12012606FA04F41688344013B10CB1AA
:10266000012000E0002070BDF0B5034600240026E4
:102670000025002040F66A17B94200D100BF184675
:10268000C1F3421401F01F06012707FA06F5012CD9
:1026900001D10C3004E0022C01D1103000E01430E4
:1026A0001AB107682F43076002E00768AF4307606D
:1026B000F0BD00002DE9FF4705460E460024A14667
:1026C00000BFA046B08900B100BF2C8A24F440545A
:1026D000F08804432C82AC8941F20C608443B088BA
:1026E00031890843718908430443AC81AC8A24F4DE
:1026F0004074B0890443AC826846FFF7F7FD204878
:10270000854202D01F48854202D1DDF80C9001E0DD
:10271000DDF80890A88900F4004040B109EBC90039
:1027200000EB091031684900B0FBF1F707E009EB55
:10273000C90000EB091031688900B0FBF1F7642093
:10274000B7FBF0F004012009642101FB1078A8898F
:1027500000F4004040B1322000EBC800B0FBF1F0C3
:1027600000F00700044308E0322000EB0810642169
:10277000B0FBF1F000F00F0004432C81BDE8FF87AF
:10278000001001400014014001468888C0F3080091
:102790007047C1F308028280704700BFFEE703B4B0
:1027A00001984100009850EAC12018BF04204A0D4A
:1027B00018BF40F0010040F2FF72B2EB515F08BF5A
:1027C00040F00200012808BF052002B0704700BF9A
:1027D000704700BF70472DE9F0472DED028B06468C
:1027E000884691469A463588B9F1010F0DD108F116
:1027F0000404002707E094ED000AB1EE400A84EDDE
:10280000000A08347F1CAF42F5D3B5F5807F1ED097
:1028100008DC102D13D0202D18D0402D1DD0802D78
:1028200024D10DE0B5F5007F18D0B5F5806F08D044
:10283000B5F5006F0CD0B5F5805F17D10FE000BF84
:1028400000BF4146304600F03EF80FE000BF00BF39
:102850004146304600F0BCF908E000BF00BFA9B215
:10286000012340467268FDF76FFD00BF00BFBAF15B
:10287000000F04D0B1894046B268FDF7BFFCB9F142
:10288000010F1CD100EE105AB8EE400AF7EE000A14
:1028900080EE808A444600270FE094ED000A20EE87
:1028A000080AA4EC010A94ED000AB1EE400A20EEF9
:1028B000080A84ED000A241D7F1CAF42EDD3BDEC55
:1028C000028BBDE8F0872DE9F04F2DED068B93B01C
:1028D00082460C46BAF8009004EB8905DAF80480C9
:1028E000A34612954FEA590904EB890605EB8907BF
:1028F0004FEA9900019052E194ED000A8DED0E0A25
:1029000094ED010A8DED0F0A94ED020A8DED100A87
:1029100094ED030A8DED110A95ED000A8DED0A0A7A
:1029200095ED010A8DED0B0A95ED020A8DED0C0A6D
:1029300095ED030A8DED0D0A96ED000A8DED060A60
:1029400096ED010A8DED070A96ED020A8DED080A53
:1029500096ED030A8DED090A97ED000A8DED020A46
:1029600097ED010A8DED030A97ED020A8DED040A39
:1029700097ED030A8DED050A9DED0E0ADDED0A0ABD
:1029800030EE200AA4EC010A9DED0F0ADDED0B0AE2
:1029900030EE200AA4EC010A9DED100ADDED0C0AD0
:1029A00030EE200AA4EC010A9DED110ADDED0D0ABE
:1029B00030EE200AA4EC010A9DED0E0ADDED0A0AB4
:1029C00030EE600A8DED0A0A9DED0F0ADDED0B0A6F
:1029D00030EE600A8DED0B0A9DED100ADDED0C0A5C
:1029E00030EE600A8DED0C0A9DED110ADDED0D0A49
:1029F00030EE600A8DED0D0A9DED060ADDED020A4E
:102A000030EE200AA6EC010A9DED070ADDED030A6F
:102A100030EE200AA6EC010A9DED080ADDED040A5D
:102A200030EE200AA6EC010A9DED090ADDED050A4B
:102A300030EE200AA6EC010A9DED020ADDED060A41
:102A400030EE600A8DED020A9DED030ADDED070A06
:102A500030EE600A8DED030A9DED040ADDED080AF3
:102A600030EE600A8DED040A9DED050ADDED090AE0
:102A700030EE600A8DED050AB8EC010AB0EE408A2E
:102A8000B8EC010AF0EE408A9DED0A0A20EE080A31
:102A9000B0EE409A9DED0B0A20EE280AF0EE409A27
:102AA0009DED0B0A20EE080AB0EE40AA9DED0A0A41
:102AB00020EE280AF0EE40AA39EE290AA5EC010A18
:102AC0003AEE6A0AA5EC010A9DED020A20EE280AF8
:102AD000B0EE409A9DED030A20EE080AF0EE409A0F
:102AE0009DED030A20EE280AB0EE40AA9DED020AF1
:102AF00020EE080AF0EE40AA39EE690AA7EC010AB6
:102B00003AEE2A0AA7EC010AB8EC010AB0EE408AB4
:102B1000B8EC010AF0EE408A9DED0C0A20EE080A9E
:102B2000B0EE409A9DED0D0A20EE280AF0EE409A94
:102B30009DED0D0A20EE080AB0EE40AA9DED0C0AAC
:102B400020EE280AF0EE40AA39EE290AA5EC010A87
:102B50003AEE6A0AA5EC010A9DED040A20EE280A65
:102B6000B0EE409A9DED050A20EE080AF0EE409A7C
:102B70009DED050A20EE280AB0EE40AA9DED040A5C
:102B800020EE080AF0EE40AA39EE690AA7EC010A25
:102B90003AEE2A0AA7EC010A0198401E019001981A
:102BA00000287FF4A9AE1FFA89F102235846DAF80B
:102BB0000420FDF7C9FB1FFA89F10223DAF804208B
:102BC0001298FDF7C1FB13B0BDEC068BBDE8F08F8A
:102BD0002DE9F34F2DED0A8B99B00E46239800880E
:102BE00040101890189806EB8004189804EB8007A2
:102BF000189807EB80051796A0461697A946201F40
:102C00001590A7F1040A281F14901899149800EB46
:102C1000810B2398406811901290139018984008E7
:102C2000189002200390042002900620019096ED57
:102C3000000AD7ED000A30EE200AB0EE40BA96ED59
:102C4000000AD7ED000A30EE600AF0EE40CA96EDB9
:102C5000010AD7ED010A30EE200AF0EE40BA96EDF7
:102C6000010AD7ED010A30EE600AB0EE40CA94EDD9
:102C7000010A30EE2C0AD5ED010A30EE600A8DED26
:102C80000D0A94ED000A3CEE400AD5ED000A30EE44
:102C9000200A8DED0E0A94ED000A3BEE400AD5EDB8
:102CA000000A30EE600A8DED090A94ED010A3BEE50
:102CB000C00AD5ED010A30EE600A8DED0A0A94EDE6
:102CC000010A3CEEC00AD5ED010A30EE200A8DED76
:102CD000050A94ED000A30EE0C0AD5ED000A30EE3C
:102CE000600A8DED060A94ED000A30EE0B0AD5ED70
:102CF000000A30EE200AA6EC010A94ED010A30EE3B
:102D00002B0AD5ED010A30EE200AA6EC010A9DED52
:102D10000D0AA4EC010A9DED0E0AA4EC010A9DED3A
:102D2000090AA7EC010A9DED0A0AA7EC010A9DED2C
:102D3000050AA5EC010A9DED060AA5EC010A039916
:102D4000139800EB810013900299129800EB810018
:102D500012900199119800EB810011901898801E33
:102D600040080490F6E196ED000AD7ED000A30EE37
:102D7000200AB0EE40BA96ED000AD7ED000A30EE18
:102D8000600AF0EE40CA96ED010AD7ED010A30EE76
:102D9000200AF0EE40BA96ED010AD7ED010A30EEB6
:102DA000600AB0EE40CA94ED010A30EE2C0AD5ED6F
:102DB000010A30EE600A8DED0D0A94ED000A3CEE3A
:102DC000400AD5ED000A30EE200A8DED0E0A94ED92
:102DD000000A3BEE400AD5ED000A30EE600A8DEDA8
:102DE000090A94ED010A3BEEC00AD5ED010A30EE66
:102DF000600A8DED0A0A94ED010A3CEEC00AD5ED99
:102E0000010A30EE200A8DED050A94ED000A30EE3D
:102E10000C0AD5ED000A30EE600A8DED060A94ED3D
:102E2000000A30EE0B0AD5ED000A30EE200AA6ECBF
:102E3000010A94ED010A30EE2B0AD5ED010A30EEBD
:102E4000200AA6EC010A159810ED010A149850ED1D
:102E5000010A30EE200AF0EE40BA159810ED010A92
:102E6000149850ED010A30EE600AB0EE40CA159891
:102E700090ED000A1498D0ED000A30EE200AB0EE72
:102E800040BA159890ED000A1498D0ED000A30EE83
:102E9000600AF0EE40CA9AED000ADBED000A30EE5F
:102EA000600A30EE0C0A8DED0F0A159890ED000ABD
:102EB0001498D0ED000A30EE600A5AED010A30EEA7
:102EC000600A5BED010A30EE200A8DED100A1AED62
:102ED000010A3BEEC00A5BED010A30EE600A8DED9F
:102EE0000B0A9AED000A3BEE400ADBED000A30EED9
:102EF000600A8DED0C0A9AED000ADBED000A30EE57
:102F0000600A30EE4C0A8DED070A1BED010A5AEDFE
:102F1000010A30EE600A30EE6C0A8DED080A9AED77
:102F2000000A30EE0B0ADBED000A30EE200A15989D
:102F300080ED000A1598001F15901AED010A30EE79
:102F40002B0A5BED010A30EE200A159880ED000A8D
:102F50001598001F15901398B0EC010AB0EE408A46
:102F600013901398B0EC010AF0EE408A13909DED97
:102F70000D0A20EE080AB0EE409A9DED0E0A20EEF2
:102F8000280AF0EE409A9DED0E0A20EE080AB0EEF7
:102F900040AA9DED0D0A20EE280AF0EE40AA39EE77
:102FA000290AA4EC010A3AEE6A0AA4EC010A9DED92
:102FB000100A20EE280AB0EE409A9DED0F0A20EE8E
:102FC000080AF0EE409A9DED0F0A20EE280AB0EEB6
:102FD00040AA9DED100A20EE080AF0EE40AA39EE54
:102FE000690A8AED000AAAF1040A3AEE2A0A8AED71
:102FF000000AAAF1040A129890ED000AB0EE408A85
:10300000129890ED010AF0EE408A0299129800EBB6
:10301000810012909DED090A20EE080AB0EE409A58
:103020009DED0A0A20EE280AF0EE409A9DED0A0A6C
:1030300020EE080AB0EE40AA9DED090A20EE280A0B
:10304000F0EE40AA39EE290AA7EC010A3AEE6A0A24
:10305000A7EC010A9DED0C0AB1EE400A20EE080A29
:10306000B0EE409A9DED0B0A20EE280AF0EE409A51
:103070009DED0B0A20EE080AB0EE40AA9DED0C0A69
:1030800020EE280AF0EE40AA39EE690A149880ED85
:10309000000A1498001F14903AEECA0A149880EDA2
:1030A000000A1498001F1490119890ED000AB0EED9
:1030B000408A119890ED010AF0EE408A019911982A
:1030C00000EB810011909DED050A20EE080AB0EE9C
:1030D000409A9DED060A20EE280AF0EE409A9DEDFA
:1030E000060A20EE080AB0EE40AA9DED050A20EE81
:1030F000280AF0EE40AA39EE290AA5EC010A3AEEB8
:103100006A0AA5EC010A9DED080A20EE280AB0EE35
:10311000409A9DED070A20EE080AF0EE409A9DEDD8
:10312000070A20EE280AB0EE40AA9DED080A20EE1C
:10313000080AF0EE40AA39EE690A8BED000AABF1FD
:10314000040B3AEE2A0A8BED000AABF1040B04984B
:10315000401E0490049800287FF405AE96ED000A06
:10316000D7ED000A30EE200AB0EE40BA96ED000A24
:10317000D7ED000A30EE600AF0EE40CA96ED010A83
:10318000D7ED010A30EE200AF0EE40BA96ED010AC2
:10319000D7ED010A30EE600AB0EE40CA94ED010AA4
:1031A00030EE2C0AD5ED010A30EE600A8DED0D0AE5
:1031B00094ED000A3CEE400AD5ED000A30EE200AFC
:1031C0008DED0E0A94ED000A3BEE400AD5ED000AA3
:1031D00030EE600A8DED090A94ED010A3BEEC00A5B
:1031E000D5ED010A30EE600A8DED0A0A94ED010A70
:1031F0003CEEC00AD5ED010A30EE200A8DED050A3D
:1032000094ED000A30EE0C0AD5ED000A30EE600AAB
:103210008DED060A94ED000A30EE0B0AD5ED000A9A
:1032200030EE200AA6EC010A94ED010A30EE2B0ADA
:10323000D5ED010A30EE200AA6EC010A139890EDB4
:10324000000AB0EE408A139890ED010AF0EE408A31
:103250009DED0D0A20EE080AB0EE409A9DED0E0A93
:1032600020EE280AF0EE409A9DED0E0A20EE080AA4
:10327000B0EE40AA9DED0D0A20EE280AF0EE40AA1D
:1032800039EE290AA4EC010A3AEE6A0AA4EC010A12
:10329000129890ED000AB0EE408A129890ED010A63
:1032A000F0EE408A9DED090A20EE080AB0EE409A41
:1032B0009DED0A0A20EE280AF0EE409A9DED0A0ADA
:1032C00020EE080AB0EE40AA9DED090A20EE280A79
:1032D000F0EE40AA39EE290AA7EC010A3AEE6A0A92
:1032E000A7EC010A119890ED000AB0EE408A1198FF
:1032F00090ED010AF0EE408A9DED050A20EE080AE5
:10330000B0EE409A9DED060A20EE280AF0EE409AB3
:103310009DED060A20EE080AB0EE40AA9DED050AD2
:1033200020EE280AF0EE40AA39EE290AA5EC010A9F
:103330003AEE6A0AA5EC010A23984268189881B20D
:1033400004231798FDF700F823984268189881B273
:1033500004234046FCF7F8FF23984268189881B28E
:1033600004231698FCF7F0FF23984268189881B25E
:1033700004234846FCF7E8FF19B0BDEC0A8BBDE812
:10338000FC8F2DE9F0412DED028B04460D461746CA
:10339000BE0848E0B4EC010AF0EE408AB4EC010A41
:1033A000B0EE408A68EEA80A48EE080AB0EE600A5D
:1033B00028462D1D00F09EF8B4EC010AF0EE408A7C
:1033C000B4EC010AB0EE408A68EEA80A48EE080A9A
:1033D000B0EE600A28462D1D00F08CF8B4EC010A0E
:1033E000F0EE408AB4EC010AB0EE408A68EEA80A1A
:1033F00048EE080AB0EE600A28462D1D00F07AF863
:10340000B4EC010AF0EE408AB4EC010AB0EE408A56
:1034100068EEA80A48EE080AB0EE600A28462D1D9C
:1034200000F068F8761E002EB4D107F0030612E013
:10343000B4EC010AF0EE408AB4EC010AB0EE408A26
:1034400068EEA80A48EE080AB0EE600A28462D1D6C
:1034500000F050F8761E002EEAD1BDEC028BBDE8DC
:10346000F0810000B0EE402A9FED1F4AF5EE003AD1
:1034700042EE043AF0EE630AFDEEE03A13EE901AE3
:10348000F5EEC00AF1EE10FA00D2491E03EE901AD2
:10349000F8EEE33A70EEE33AF0EE630ADFED133A4A
:1034A00060EEA31AFCEEE13A13EE902AC2F3080094
:1034B00003EE900AF8EE633A31EEE31A0C4A02EB9F
:1034C0008002D2ED002A0A4B421C03EB820292EDED
:1034D000003AF7EE003A73EEC13A63EEA23AB0EE6C
:1034E000630A01EE030A704783F9223E000000449C
:1034F0002C8503080146B5EEC00AF1EE10FA05DB93
:10350000F1EEC00AC1ED000A00207047DFED030AAA
:10351000C1ED000A4FF0FF30F7E7000000000000A7
:1035200000B5ADF6040D012300221B491B48FFF72F
:1035300052F94FF4007201A91748FFF722FF9DEDE1
:10354000010A1748D0ED000A9FED161A60EE810AB5
:1035500080EE201A144880ED001A012017E001A91E
:1035600001EB800191ED000AF0EE000A20EE200A46
:103570000B49D1ED000A9FED0B1A60EE810A80EE37
:10358000201A094901EB800181ED001A401CFF2837
:10359000E5DD0DF6040D00BD400800208899030804
:1035A00014000020000000444018002010B502461E
:1035B000BFEE000A274880ED000ABFEE000A264849
:1035C00080ED000A0020254B1860254B186010463E
:1035D00017E0244B03EB800393ED000A1D4BD3ED62
:1035E000000AB4EEE00AF1EE10FA09DD1D4B03EB20
:1035F000800393ED000A174B83ED000A174B186008
:10360000401C8842E5DD104621E0144C2468031B71
:10361000002B01DB1C4600E05C42052C16DB114C44
:1036200004EB800494ED000A0B4CD4ED000AB4EED8
:10363000E00AF1EE10FA09DD0A4B03EB800393ED8B
:10364000000A234683ED000A054B1860401C88429F
:10365000DBDD10BD20000020240000201800002029
:103660001C0000204018002000BF054A128802F00C
:103670004002002AF9D0C2B2014B9A807047000084
:103680000010014010B52DED028B9FED1D0AB0EE2C
:10369000408A002426E000EE104AB8EEC00ADFEDB2
:1036A000190A20EE200ADFED180A80EE201AF0EE4B
:1036B000418AB0EE680AFFF7D5FEDFED140A9FEDF0
:1036C000141A41EE400A134800EB8400C0ED000AD2
:1036D000104800EB840090ED000A30EE080AB0EECE
:1036E000408A641CB4F5007FD5DB9FED0B0AC8EE61
:1036F000000A0A48C0ED000ABDEC028B10BD0000B4
:1037000000000000DB0FC9400080FF43713D0A3F0D
:103710001F85EB3E40000020000000441400002004
:103720002DED028BFEF77AFCFEF7E6FA4FF4FA7005
:10373000FEF7C8FCFFF7A6FF00F028F8FFF7F0FE41
:103740006E210A20FFF732FFFEF756F900F062F80B
:1037500015E0002411E00A4800EB840090ED000A17
:1037600010EE101A084600F07DFF41EC180B53ECE8
:10377000182B04A0FDF758F8641CFF2CEBDDE8E7DC
:103780004018002025660D0A0000000000202FE0F0
:10379000194931F8101000EE901AF8EE600A9FED0A
:1037A000171A60EE810A9FED161AC0EE811A1549AC
:1037B00001EB8001C1ED001A124901EB8001D1ED4E
:1037C000000A114901EB800191ED001A60EE810AB7
:1037D000B0EE600A0D4A02EBC00181ED000ADFED98
:1037E0000C0A4100491C02EB8101C1ED000A401C9A
:1037F000B0F5007FCCDB70474024002033335340CA
:1038000000008045401C00204000002040080020AF
:103810000000000010B52DED068BB24890ED000AB7
:10382000B148D0ED000A30EE600AF0EE408AAD48B3
:1038300090ED000AAC48D0ED000A80EE201AB0EE00
:10384000418A9FEDAA0AB4EEC08AF1EE10FA69DB54
:10385000A7480068A7490968884231DDA448006884
:1038600000F08AFB41EC1A0B9FEDA30B53EC102BDD
:1038700000F0A6FB41EC190B002201211046B0EE2E
:10388000490AF0EE690AFEF749F99A48006800F023
:1038900073FB41EC1A0B9FED980B53EC102B00F0CF
:1038A0008FFB41EC190B002211461046B0EE490A7D
:1038B000F0EE690AFEF7BCF80120914908600EE1BC
:1038C0008C48006800F058FB41EC1A0B9FED8A0B06
:1038D00053EC102B00F074FB41EC190B0022114645
:1038E0001046B0EE490AF0EE690AFEF717F9804873
:1038F000006800F041FB41EC1A0B9FED7F0B53EC8D
:10390000102B00F05DFB41EC190B00220121104649
:10391000B0EE490AF0EE690AFEF78AF8022078490B
:103920000860DCE06F4890ED000ADFED760AB4EE47
:10393000E00AF1EE10FA69DB6D4800686D4909682C
:10394000884231DD6A48006800F016FB41EC1A0B32
:103950009FED690B53EC102B00F032FB41EC190B7F
:10396000002201211046B0EE490AF0EE690AFEF786
:10397000D5F86048006800F0FFFA41EC1A0B9FEDA3
:103980005E0B53EC102B00F01BFB41EC190B0022DB
:1039900001211046B0EE490AF0EE690AFEF748F838
:1039A0000320574908609AE05248006800F0E4FAA2
:1039B00041EC1A0B9FED500B53EC102B00F000FB69
:1039C00041EC190B002201211046B0EE490AF0EE3D
:1039D000690AFEF7A3F84648006800F0CDFA41EC0A
:1039E0001A0B9FED450B53EC102B00F0E9FA41EC5C
:1039F000190B002201211046B0EE490AF0EE690AC7
:103A0000FEF716F804203E49086068E03848006870
:103A100038490968884231DD3548006800F0ACFA61
:103A200041EC1A0B9FED340B53EC102B00F0C8FA4D
:103A300041EC190B002211461046B0EE490AF0EE97
:103A4000690AFEF76BF82B48006800F095FA41EC24
:103A50001A0B9FED290B53EC102B00F0B1FA41EC3F
:103A6000190B002211461046B0EE490AF0EE690A21
:103A7000FDF7DEFF05202249086030E01D480068A0
:103A800000F07AFA41EC1A0B9FED1B0B53EC102B54
:103A900000F096FA41EC190B002211461046B0EEE8
:103AA000490AF0EE690AFEF739F81148006800F09B
:103AB00063FA41EC1A0B9FED100B53EC102B00F046
:103AC0007FFA41EC190B002211461046B0EE490A6C
:103AD000F0EE690AFDF7ACFF062009490860BDEC6D
:103AE000068B10BD20000020240000209A99993FE9
:103AF000180000201C0000200000000000408F4043
:103B000028000020CDCCCC3E10B500290AD0087882
:103B1000002807D005487844FDF7E4FA002801D0D2
:103B2000002010BD0248784410BD000086600300EC
:103B30007E6003002DE9C04130B4DFF864C33CEA85
:103B4000111418BF3CEA131400F04B8181EA0305FD
:103B50001CEA111444EAD57418BF1CEA131500F0CE
:103B60001D81A4EB05044FF0004545EAC12145EA5B
:103B7000C32341EA505143EA525304F17F749942FE
:103B800004F500344FEAC0204FEAC22208BF904239
:103B900000F0D0804FEA13650FF20426765D4FEAFD
:103BA000134506FB05F7C7F1807706FB07F74FEAD9
:103BB000D737A7FB03687642C8F58038A7FB06CE47
:103BC00038BFA8F1010807FB08E64FF0000EA6FB7E
:103BD000028CE6FB03CEDCF1000CCEF1004E38BFC8
:103BE000AEF1010EA6FB0C584FF000074FF0000598
:103BF000E6FB0E87A1FB08C6A0FB07CE16EB0E0660
:103C000045F10005E1FB076515F1E04E7EBFA4F527
:103C100080345FEA46066D4116F18007F1EE10CA66
:103C200045F100054FEA172747EA05671CF4400FE6
:103C30004FEA152536D14FEA4666A6F15E46B6F143
:103C4000085F2FD9B4F1FE6F2CD8384624F0010C50
:103C500005EBC471BCF1FE6F01EB0C11DFF844C23F
:103C600002D8F0BCBDE8004140F2068424425CBFAB
:103C700001F5801E9EEAC47F02D4F0BCBDE800417D
:103C800040F1FA83244277D4DFF81CC256EA080ECA
:103C9000A1F1C04118BF4CF0804CF0BCBDE8004120
:103CA00000F0EABB4FEAD22242EA43524FEAD32362
:103CB000A7FB02864FEAD02040EA415007FB03668B
:103CC0001EEA0E0F4FEAD12105FB026658BFA6EB94
:103CD0000056B6EB00564FEA520E4EEAC37E18EB82
:103CE0000E0E56EB530E05D518EB02085E417F1CF5
:103CF00055F1000556EA080E24D01CF4400FA4D05C
:103D000014F0010F18BF4FEA4C0C1CF4000F08D040
:103D100036429AD4B8EB02089E417F1E75F1000529
:103D200093E7364291D518EB02085E417F1C55F1AE
:103D300000058AE74FF480154FF000074FF00006AA
:103D40004FF0000824F0010C384605EBC471BCF1BB
:103D5000FE6F01EB0C1102D8F0BCBDE800811CEA3B
:103D60000C0F5CBF01F5801E9EEAC47F02D4F0BC3C
:103D7000BDE80081244287D556EA080C01F1C04114
:103D80001CBF06F0004C4CF0804C4CF0005CF0BCCA
:103D90004CF0140CBDE8004100F0B1BA50EA410EFD
:103DA0000CEA13150BD052EA430E13D000F069FA57
:103DB000641B86EA4606240444EAD674D3E652EA33
:103DC000430E00F02680F0BC81EA030101F00041BF
:103DD000BDE80081F0BCBDE80041DFF8D0C000F0D4
:103DE0004BBBF0BCBDE8004170B500F0C9F900BFA5
:103DF000097EFC3E1400000400F007B881EA0301CC
:103E00004FF0000001F00041704781EA030100F02B
:103E100070BAF0BCBDE800415FF828C000F02CBBD0
:103E2000FFFDFBF9F7F5F4F2F0EEEDEBE9E8E6E47F
:103E3000E3E1E0DEDDDBDAD8D7D5D4D3D1D0CFCD06
:103E4000CCCBCAC8C7C6C5C4C2C1C0BFBEBDBCBB3F
:103E5000BAB9B8B7B6B5B4B3B2B1B0AFAEADACAB3A
:103E6000AAA9A8A8A7A6A5A4A3A3A2A1A09F9F9E14
:103E70009D9C9C9B9A9999989797969595949393C6
:103E8000929191908F8F8E8E8D8C8C8B8B8A89895D
:103E900088888787868585848483838282818180E0
:103EA0000000FF0714000040140000101400000878
:103EB0004FEA410380B54FEA5353A3F58063D3F132
:103EC0001E03C8BFD3F1210C1FDD4FF0004242EAB0
:103ED000C12242EA505232FA03FC62FA03F787EA3F
:103EE0000C0757EAC0270BD032FA03FC8CEAE17CBE
:103EF000ACEBE170BDE88040DFF874C000F0BCBA04
:103F00008CEAE17CACEBE17080BD50EA410C00D161
:103F100080BD102B07DD4FF00000BDE88040DFF8CA
:103F200050C000F0A9BA03F5787CBCF1FF3F14D073
:103F3000002B02BF7FEA210C5FEA013C5FEA505C84
:103F400005D100284FF00040D4D100D180BDBDE89C
:103F50008040DFF820C000F08FBABDE8804070B527
:103F600000F00EF9000000BFC800030480B5DFE7D1
:103F7000C8000240C800020410F0004248BF40429E
:103F8000B0FA80F310FA03F10AD0C3F11D0303F570
:103F900080634FEA415002EB035202EBD12170479C
:103FA0004FF000007047B1FA81F201FA02F1C2F15C
:103FB0001D024FEA415003EB025303EBD12170473E
:103FC000DFF8B4C170B51CEA111E1EBF1CEA131540
:103FD0009EEA0C0F95EA0C0F00F0948081EA03042E
:103FE00021EA4C114EEAD47E23EA4C13AE4441F44C
:103FF000801143F48013A1FB024CA0FB0365AEF1DA
:104000007F7E361955EB0C05A1FB034C4CF10003E8
:10401000A0FB021C16EB0C06654153F1000309429C
:1040200018BF46F0010613F4007F0BD14FEA0331AD
:104030004FEA0530340341EA155140EA16506FF05B
:1040400003020AE04FEAC3214FEAC520F40241EA25
:10405000555140EA56506FF00202264602EB2E42BE
:1040600001EB025585EACE7127D0F1EE10CA054664
:104070001CF4400C14D15FEA440C18BF24F0004437
:1040800050F1000041F1000120EAD47040F2FD7CC3
:10409000624517D2BDE87040DFF8E0C000F0ECB92F
:1040A0005FEACE7454BF1CF4000F1CF4800F08BFED
:1040B00010F1010041F10001E8E740F2FE7C6245A9
:1040C00004D270BD08BF11F4801FE3D0A84214BF12
:1040D0004FF080444FF04044002E08BF0024BEF152
:1040E000806FD8BF01F1C041A8BFA1F1C04144F029
:1040F000130CA8BF4CF0805CBDE8704040F3FF801B
:1041000000F0BAB99EEA0C0F0CEA131518BF95EA35
:104110000C0F19D091EA030F48BF4EF0010E50EA80
:10412000410418BF52EA430409D000F0AAF8641908
:1041300086EA46064FEA044E4EEAD67E5BE74FEA31
:10414000CE714FF0000070BD00F01AF88900013EFA
:104150001300000400F005B800F007B852EA430C61
:1041600006D081EA030100F0C4B850EA410CF8D14E
:104170005FF824C000F080B90000FF071300004082
:104180000EF1020E2EF0030E01285EF8086B41EBD3
:10419000010414F5001418BFB4F5801F23D3364270
:1041A00008D4012A43EB030515F5001518BFB5F532
:1041B000801F18D301EB010C1CF5801F16D236426C
:1041C00004D403EB030C1CF5801F0FD2002C10D17C
:1041D0004FEAD17C002D0CEB4C0C0CF1020C08BF0B
:1041E0004CEBD37C07E04FF0090C04E04FF0080CD7
:1041F00001E04FEAD37C0CEB4C0526FA05F606F0FD
:104200000706B6F1040C06D20EEB860CBDE8704032
:104210004CF0010C6047DFE80CF0222413025EF83A
:1042200004CC1B2D08D1002C88BFB4F5801F34BFEF
:104230004CF4804C4CF4004CBDE8704000F01CB9CC
:10424000002C88BFB4F5001F24BF1946104670BD6E
:104250004FF000004FF00041A1F5002170BD19465C
:104260001046012851EB010418BFD4F5001484BF97
:104270005EF804CC2CF0806CBDE8704000F2DC806D
:10428000704780B54FF003065C004FEA03334FEAF6
:104290003606640D4FEA133318BF43F480131CD164
:1042A00053EA125E04F1010402BF13460022203CCF
:1042B0001B4202BF130B1205143CB3FA83FEAEF18E
:1042C0000B0ECEF1200C03FA0EF322FA0CFC02FACC
:1042D0000EF2A4EB0E0443EA0C030FB416F0010F28
:1042E0000CBC03BC18BF2546CED180BD80B50126CD
:1042F000F3E70808A0F500114FEA31017047F1EE2D
:10430000103A13F0807F1EBF01F00041002070477B
:1043100013F4006F40F0AA80094248BF4CF4803C7F
:104320004FF4C0634FEA115203F1010321EA025135
:1043300022F400629A1A48BF6FF0FE0241F4801125
:10434000352A3CD830D0152A1ED3203A0CD9002863
:10435000C2F1200321FA02F001FA03F218BF42F081
:1043600001024FF0000130E0C2F1000302F120022F
:1043700001FA03F120FA02F241EA020100FA03F223
:1043800008464FF0000120E0C2F1200310B400FA0B
:1043900003F401FA03F320FA02F021FA02F12246B3
:1043A00010BC43EA000010E050EA01324FF0000078
:1043B0004FF000014FF0004218BF521C05E04FF0D3
:1043C00001024FF000014FF000001CF4803F2CF47C
:1043D000803C18BF41F0004112421ED0F1EE103A6D
:1043E00013F4400F20D1520003D30CD0401C41F1F4
:1043F0000001F1EE103A4CF0804C43F00803E1EE7E
:10440000103A00F039B85FEAAC72EFD4F1D1401C39
:1044100041F1000120F00100EBE71CF0804F08BFE4
:1044200070472CF0004CE4E7094254BF13F4000F2E
:1044300013F4800FDDD1D9E7F1EE103A13F0807F4D
:104440001EBF01F000410020704713F4006F08BF49
:1044500070472DE9F050FFF749FF04F5C064A4F15F
:104460000104314301EB0451BDE8F0504CF0005C15
:104470004CF0800C00F0BBBA1CF0700F08BF0A466D
:104480000FB4F1EE101A0CF0405030EA814318BF1F
:104490004CF0804C4FEA4C0310EA814F4FEAD36353
:1044A00023EA112318BF23F0100341EA030101F0AE
:1044B000E073E1EE101A4CEA030C0CF00F030A2B28
:1044C0001DBF082B0CF070034CEAC30C4FF40033F3
:1044D00004BF33EA0C034CF4400C1CF0005F14D111
:1044E0001CF0805F0BD11CF0804F31D11CF0006FAD
:1044F00012D111F4807F0FBC62D000F078BA11F4B1
:10450000806F0FBC2BD000F072BA11F4006F0FBC9B
:1045100008BF704700F06BBA11F4007F0FBC40F089
:1045200066821CF0400F1EBF4FF0004040F00100BB
:1045300070471CF0100F14BF81EA030242400CF0D8
:104540000F000A2808BF4FF0FF324FF0000326E0AB
:1045500011F4805F0FBC08BF704700F048BAF1EE5D
:10456000103A2CF0805C1CF0800F14BF01F0004268
:1045700000F0004212420CBF12EA336F12EAF35FFE
:104580000DD31CF0100F1DBF30A003C811433148DC
:1045900008BF104313F4805F40F0298270471CF07D
:1045A000100F02F000421DBF0FF2940003C8114328
:1045B000254808BF104313F4805F40F0188270470D
:1045C0001CF0400F40F028801CF4404F1BD01CF41E
:1045D000004F1CBF194610460CF4807218BF8CEABD
:1045E000520C1CF0800F0CBF40F4800041F40021FD
:1045F0008CEADC0313F0100F1CBF2CF00F0C4CF0F6
:10460000080C00F09BB91CF0100F1ABF12A393E81E
:104610000300134800F092B91CF0800F14BF01F0A2
:10462000004200F000421CF0100F1BBF0AA393E8E9
:1046300003000B48114308BF104300F07FB900BFCF
:10464000000000000000F07F0000807FFFFFFFFF00
:10465000FFFFEF7FFFFF7F7F000000000000F87F7B
:104660000000C07F43004FEAD30C4FEA3C0C4340AC
:104670001FBF40070CF1605113F0FE4F70471CF054
:10468000006F14D133F0004004BF1946704783EA2D
:10469000830383EA430303F0070343EACC010CF0EE
:1046A000004303F15A5303F54013FFF77CBC0CF0B1
:1046B000004343EA507010B540EACC0000F00FF818
:1046C000000000BA180000044FEA0001FFF711BE15
:1046D0004FEAE0024FEA407042F0E04170470EF1CD
:1046E000020E2EF0030E4FEA40025EF8084B12F164
:1046F000807218BFB2F5000F22D3244207D44FEACC
:10470000410313F1807318BFB3F5000F18D34FEABC
:10471000400C1CF5000F16D2244204D44FEA410C81
:104720001CF5000F0FD2002A10D14FEAD07C002BCD
:104730000CEB4C0C0CF1020C08BF4CEBD17C07E0ED
:104740004FF0090C04E04FF0080C01E04FEAD17C77
:104750000CEB4C0324FA03F404F00704B4F1040C4A
:1047600006D20EEB840CBDE810404CF0010C604703
:10477000DFE80CF01F2013025EF804CC1B2B08D1DD
:10478000002A88BFB2F5000F34BF4CF4804C4CF4C3
:10479000004CBDE81040FFF76FBE002A88BFB2F1A1
:1047A000807F28BF084610BD4FF00040A0F5800074
:1047B00010BD0846420018BFD2F1807284BF5EF877
:1047C000042C22F08062BDE8104000F28580704722
:1047D0004FF00000E1EE100A7047F1EE101A11F0F0
:1047E000807F1CBF00F00040704711F4006F40F064
:1047F0008E8000F0004343EAD05323F48073C3F16A
:10480000C10323F00041172941D8C3F1200310FA56
:1048100003F1C3F1200320F07F4040F4000020FAB0
:1048200003F003F0004340EA030019D00B46F1EE19
:10483000101A41F00801E1EE101A11F4400F1CD1DA
:10484000590009D318BF401C06D17FEAE27398BF14
:10485000401C38BF20F0010042F0804CFFF70CBE36
:1048600012F0804F08BF7047F1EE101A944641F0E5
:104870000801E1EE101AFFF7FFBD10F0004F14BF62
:104880005FEAF1535FEA316338BF401CE4E718295F
:1048900003EB912318BF6FF000410131F1EE101AC4
:1048A00041F00801E1EE101A11F4400F18BF03F0B7
:1048B0000040E2D168BF03F0004009D6400203F097
:1048C000004000F1010004BF12F0004F20F0010091
:1048D0004FF0804CFFF7D0BDF1EE101A11F0807F41
:1048E0001CBF00F00040704711F4006F08BF704714
:1048F00000F0004120F00040B0FA80F3A3F108037B
:1049000041F0C04100FA03F0A1EBC351084442F06A
:10491000005C00F06CB80000064A21EA020120EABF
:104920000202F1EE100A20EA020282EA0102E1EE3E
:10493000102A704760603FF6FCF728B90CF00F03AF
:10494000092B08BF082000F064800A2B32D0082B06
:1049500018BF704708BF1CF0400F31D01CF4803FD7
:1049600023D11CF0200F11D11CF0100F0BBF0246F9
:104970000A466FF000406FF0004118BF4FF0FF3063
:1049800012F0004F1CBFC043C94370471CF0100F0A
:104990000CBF02460A4612F0004F4FF0FF304FF0B6
:1049A000FF311CBFC043C94370474FF000004FF0B8
:1049B000000170471CF0400F18BF4FF000407047D7
:1049C0001CF0100F08D020F0704300F07F4242EA44
:1049D000D3014FEA4370704700F0604021F07F42FE
:1049E00042EA000201F07F4040EA727070472DE910
:1049F00000502DE90050FCF753FBBDE80050BDE826
:104A000000500CF00F0393F0090F18BF7047AFF37D
:104A100000801CF4801F24D01CF4E02F09D010F07B
:104A2000080F02D1D0F1020070476FEACC31490083
:104A300070474FF0604111EA407028BF40F040508D
:104A4000F1EE103A23F0704343EA0003E1EE103A2E
:104A5000EFF3008222F0704242EA000282F3008803
:104A600070471CEA004018BF012070470004000294
:104A7000000600010005000300078000800480029A
:104A800080068001800580038007400040044002CA
:104A900040064001400540034007C000C004C0027A
:104AA000C006C001C005C003C007200020042002CA
:104AB00020062001200520032007A000A004A0025A
:104AC000A006A001A005A003A0076000600460028A
:104AD00060066001600560036007E000E004E0023A
:104AE000E006E001E005E003E0071000100410021A
:104AF000100610011005100310079000900490029A
:104B000090069001900590039007500050045002C9
:104B100050065001500550035007D000D004D00279
:104B2000D006D001D005D003D007300030043002C9
:104B300030063001300530033007B000B004B00259
:104B4000B006B001B005B003B00770007004700289
:104B500070067001700570037007F000F004F00239
:104B6000F006F001F005F003F00708000804080261
:104B70000806080108050803080788008804880259
:104B80008806880188058803880748004804480289
:104B900048064801480548034807C800C804C80239
:104BA000C806C801C805C803C80728002804280289
:104BB00028062801280528032807A800A804A80219
:104BC000A806A801A805A803A80768006804680249
:104BD00068066801680568036807E800E804E802F9
:104BE000E806E801E805E803E807180018041802D9
:104BF0001806180118051803180798009804980259
:104C00009806980198059803980758005804580288
:104C100058065801580558035807D800D804D80238
:104C2000D806D801D805D803D80738003804380288
:104C300038063801380538033807B800B804B80218
:104C4000B806B801B805B803B80778007804780248
:104C500078067801780578037807F800F804F802F8
:104C6000F806F801F805F803F80704000404040244
:104C70000406040104050403040784008404840278
:104C800084068401840584038407440044044402A8
:104C900044064401440544034407C400C404C40258
:104CA000C406C401C405C403C407240024042402A8
:104CB00024062401240524032407A400A404A40238
:104CC000A406A401A405A403A40764006404640268
:104CD00064066401640564036407E400E404E40218
:104CE000E406E401E405E403E407140014041402F8
:104CF0001406140114051403140794009404940278
:104D000094069401940594039407540054045402A7
:104D100054065401540554035407D400D404D40257
:104D2000D406D401D405D403D407340034043402A7
:104D300034063401340534033407B400B404B40237
:104D4000B406B401B405B403B40774007404740267
:104D500074067401740574037407F400F404F40217
:104D6000F406F401F405F403F4070C000C040C023F
:104D70000C060C010C050C030C078C008C048C0237
:104D80008C068C018C058C038C074C004C044C0267
:104D90004C064C014C054C034C07CC00CC04CC0217
:104DA000CC06CC01CC05CC03CC072C002C042C0267
:104DB0002C062C012C052C032C07AC00AC04AC02F7
:104DC000AC06AC01AC05AC03AC076C006C046C0227
:104DD0006C066C016C056C036C07EC00EC04EC02D7
:104DE000EC06EC01EC05EC03EC071C001C041C02B7
:104DF0001C061C011C051C031C079C009C049C0237
:104E00009C069C019C059C039C075C005C045C0266
:104E10005C065C015C055C035C07DC00DC04DC0216
:104E2000DC06DC01DC05DC03DC073C003C043C0266
:104E30003C063C013C053C033C07BC00BC04BC02F6
:104E4000BC06BC01BC05BC03BC077C007C047C0226
:104E50007C067C017C057C037C07FC00FC04FC02D6
:104E6000FC06FC01FC05FC03FC0702000204020234
:104E70000206020102050203020782008204820286
:104E800082068201820582038207420042044202B6
:104E900042064201420542034207C200C204C20266
:104EA000C206C201C205C203C207220022042202B6
:104EB00022062201220522032207A200A204A20246
:104EC000A206A201A205A203A20762006204620276
:104ED00062066201620562036207E200E204E20226
:104EE000E206E201E205E203E20712001204120206
:104EF0001206120112051203120792009204920286
:104F000092069201920592039207520052045202B5
:104F100052065201520552035207D200D204D20265
:104F2000D206D201D205D203D207320032043202B5
:104F300032063201320532033207B200B204B20245
:104F4000B206B201B205B203B20772007204720275
:104F500072067201720572037207F200F204F20225
:104F6000F206F201F205F203F2070A000A040A024D
:104F70000A060A010A050A030A078A008A048A0245
:104F80008A068A018A058A038A074A004A044A0275
:104F90004A064A014A054A034A07CA00CA04CA0225
:104FA000CA06CA01CA05CA03CA072A002A042A0275
:104FB0002A062A012A052A032A07AA00AA04AA0205
:104FC000AA06AA01AA05AA03AA076A006A046A0235
:104FD0006A066A016A056A036A07EA00EA04EA02E5
:104FE000EA06EA01EA05EA03EA071A001A041A02C5
:104FF0001A061A011A051A031A079A009A049A0245
:105000009A069A019A059A039A075A005A045A0274
:105010005A065A015A055A035A07DA00DA04DA0224
:10502000DA06DA01DA05DA03DA073A003A043A0274
:105030003A063A013A053A033A07BA00BA04BA0204
:10504000BA06BA01BA05BA03BA077A007A047A0234
:105050007A067A017A057A037A07FA00FA04FA02E4
:10506000FA06FA01FA05FA03FA0706000604060230
:105070000606060106050603060786008604860264
:105080008606860186058603860746004604460294
:1050900046064601460546034607C600C604C60244
:1050A000C606C601C605C603C60726002604260294
:1050B00026062601260526032607A600A604A60224
:1050C000A606A601A605A603A60766006604660254
:1050D00066066601660566036607E600E604E60204
:1050E000E606E601E605E603E607160016041602E4
:1050F0001606160116051603160796009604960264
:105100009606960196059603960756005604560293
:1051100056065601560556035607D600D604D60243
:10512000D606D601D605D603D60736003604360293
:1051300036063601360536033607B600B604B60223
:10514000B606B601B605B603B60776007604760253
:1051500076067601760576037607F600F604F60203
:10516000F606F601F605F603F6070E000E040E022B
:105170000E060E010E050E030E078E008E048E0223
:105180008E068E018E058E038E074E004E044E0253
:105190004E064E014E054E034E07CE00CE04CE0203
:1051A000CE06CE01CE05CE03CE072E002E042E0253
:1051B0002E062E012E052E032E07AE00AE04AE02E3
:1051C000AE06AE01AE05AE03AE076E006E046E0213
:1051D0006E066E016E056E036E07EE00EE04EE02C3
:1051E000EE06EE01EE05EE03EE071E001E041E02A3
:1051F0001E061E011E051E031E079E009E049E0223
:105200009E069E019E059E039E075E005E045E0252
:105210005E065E015E055E035E07DE00DE04DE0202
:10522000DE06DE01DE05DE03DE073E003E043E0252
:105230003E063E013E053E033E07BE00BE04BE02E2
:10524000BE06BE01BE05BE03BE077E007E047E0212
:105250007E067E017E057E037E07FE00FE04FE02C2
:10526000FE06FE01FE05FE03FE0701000000803F72
:10527000000000005E836C3F15EFC33EF304353F32
:10528000F304353F15EFC33E5E836C3F0000000022
:105290000000803F15EFC3BE5E836C3FF30435BF53
:1052A000F304353F5E836CBF15EFC33E000080BF43
:1052B000000000005E836CBF15EFC3BEF30435BF72
:1052C000F30435BF15EFC3BE5E836CBF00000080E2
:1052D000000080BF15EFC33E5E836CBFF304353F13
:1052E000F30435BF5E836C3F15EFC3BE0000803F03
:1052F00000000000BE147B3FC2C5473E5E836C3F8A
:1053000015EFC33E31DB543FDA390E3FF304353F2E
:10531000F304353FDA390E3F31DB543F15EFC33E1E
:105320005E836C3FC2C5473EBE147B3F0000000059
:105330000000803FC2C547BEBE147B3F15EFC3BE11
:105340005E836C3FDA390EBF31DB543FF30435BF67
:10535000F304353F31DB54BFDA390E3F5E836CBF57
:1053600015EFC33EBE147BBFC2C5473E000080BFE1
:1053700000000000BE147BBFC2C547BE5E836CBF89
:1053800015EFC3BE31DB54BFDA390EBFF30435BFAE
:10539000F30435BFDA390EBF31DB54BF15EFC3BE9E
:1053A0005E836CBFC2C547BEBE147BBF00000080D9
:1053B000000080BFC2C5473EBE147BBF15EFC33E91
:1053C0005E836CBFDA390E3F31DB54BFF304353FE7
:1053D000F30435BF31DB543FDA390EBF5E836C3FD7
:1053E00015EFC3BEBE147B3FC2C547BE0000803F61
:1053F000000000006DC47E3F36BDC83DBE147B3F3B
:10540000C2C5473E0BFA743F31A0943E5E836C3FA9
:1054100015EFC33E98C5613FEA5AF13E31DB543F78
:10542000DA390E3F03E4453F9967223FF304353FE5
:10543000F304353F9967223F03E4453FDA390E3FD5
:1054400031DB543FEA5AF13E98C5613F15EFC33E48
:105450005E836C3F31A0943E0BFA743FC2C5473E59
:10546000BE147B3F36BDC83D6DC47E3F00000000CA
:105470000000803F36BDC8BD6DC47E3FC2C547BE7B
:10548000BE147B3F31A094BE0BFA743F15EFC3BE30
:105490005E836C3FEA5AF1BE98C5613FDA390EBFB0
:1054A00031DB543F996722BF03E4453FF30435BF26
:1054B000F304353F03E445BF9967223F31DB54BF16
:1054C000DA390E3F98C561BFEA5AF13E5E836CBF80
:1054D00015EFC33E0BFA74BF31A0943EBE147BBFE0
:1054E000C2C5473E6DC47EBF36BDC83D000080BF0B
:1054F000000000006DC47EBF36BDC8BDBE147BBFBA
:10550000C2C547BE0BFA74BF31A094BE5E836CBFA8
:1055100015EFC3BE98C561BFEA5AF1BE31DB54BF77
:10552000DA390EBF03E445BF996722BFF30435BFE4
:10553000F30435BF996722BF03E445BFDA390EBFD4
:1055400031DB54BFEA5AF1BE98C561BF15EFC3BE47
:105550005E836CBF31A094BE0BFA74BFC2C547BE58
:10556000BE147BBF36BDC8BD6DC47EBF00000080C9
:10557000000080BF36BDC83D6DC47EBFC2C5473E7A
:10558000BE147BBF31A0943E0BFA74BF15EFC33E2F
:105590005E836CBFEA5AF13E98C561BFDA390E3FAF
:1055A00031DB54BF9967223F03E445BFF304353F25
:1055B000F30435BF03E4453F996722BF31DB543F15
:1055C000DA390EBF98C5613FEA5AF1BE5E836C3F7F
:1055D00015EFC3BE0BFA743F31A094BEBE147B3FDF
:1055E000C2C547BE6DC47E3F36BDC8BD0000803F0A
:1055F000000000000FB17F3F2FFB483D6DC47E3F90
:1056000036BDC83DAC3A7D3F8340163EBE147B3F5D
:10561000C2C5473EF853783FCCCF783E0BFA743F73
:1056200031A0943E0809713FD47CAC3E5E836C3F50
:1056300015EFC33ED86B673F80E8DA3E98C5613FFF
:10564000EA5AF13E1A945B3F3D9C033F31DB543FE5
:10565000DA390E3F029F4D3FC07F183F03E4453FBC
:105660009967223FF9AE3D3F4AEB2B3FF304353FAC
:10567000F304353F4AEB2B3FF9AE3D3F9967223F9C
:1056800003E4453FC07F183F029F4D3FDA390E3F8C
:1056900031DB543F3D9C033F1A945B3FEA5AF13E95
:1056A00098C5613F80E8DA3ED86B673F15EFC33E8F
:1056B0005E836C3FD47CAC3E0809713F31A0943EC0
:1056C0000BFA743FCCCF783EF853783FC2C5473EC3
:1056D000BE147B3F8340163EAC3A7D3F36BDC83D8D
:1056E0006DC47E3F2FFB483D0FB17F3F000000009F
:1056F0000000803F2FFB48BD0FB17F3F36BDC8BDC6
:105700006DC47E3F834016BEAC3A7D3FC2C547BEE6
:10571000BE147B3FCCCF78BEF853783F31A094BE07
:105720000BFA743FD47CACBE0809713F15EFC3BEC1
:105730005E836C3F80E8DABED86B673FEA5AF1BE01
:1057400098C5613F3D9C03BF1A945B3FDA390EBF99
:1057500031DB543FC07F18BF029F4D3F996722BF86
:1057600003E4453F4AEB2BBFF9AE3D3FF30435BFA1
:10577000F304353FF9AE3DBF4AEB2B3F03E445BF91
:105780009967223F029F4DBFC07F183F31DB54BF56
:10579000DA390E3F1A945BBF3D9C033F98C561BF49
:1057A000EA5AF13ED86B67BF80E8DA3E5E836CBF91
:1057B00015EFC33E080971BFD47CAC3E0BFA74BF31
:1057C00031A0943EF85378BFCCCF783EBE147BBF57
:1057D000C2C5473EAC3A7DBF8340163E6DC47EBF16
:1057E00036BDC83D0FB17FBF2FFB483D000080BFD5
:1057F000000000000FB17FBF2FFB48BD6DC47EBF0E
:1058000036BDC8BDAC3A7DBF834016BEBE147BBF5B
:10581000C2C547BEF85378BFCCCF78BE0BFA74BF71
:1058200031A094BE080971BFD47CACBE5E836CBF4E
:1058300015EFC3BED86B67BF80E8DABE98C561BFFD
:10584000EA5AF1BE1A945BBF3D9C03BF31DB54BFE3
:10585000DA390EBF029F4DBFC07F18BF03E445BFBA
:10586000996722BFF9AE3DBF4AEB2BBFF30435BFAA
:10587000F30435BF4AEB2BBFF9AE3DBF996722BF9A
:1058800003E445BFC07F18BF029F4DBFDA390EBF8A
:1058900031DB54BF3D9C03BF1A945BBFEA5AF1BE93
:1058A00098C561BF80E8DABED86B67BF15EFC3BE8D
:1058B0005E836CBFD47CACBE080971BF31A094BEBE
:1058C0000BFA74BFCCCF78BEF85378BFC2C547BEC1
:1058D000BE147BBF834016BEAC3A7DBF36BDC8BD8B
:1058E0006DC47EBF2FFB48BD0FB17FBF000000809D
:1058F000000080BF2FFB483D0FB17FBF36BDC83DC4
:105900006DC47EBF8340163EAC3A7DBFC2C5473EE4
:10591000BE147BBFCCCF783EF85378BF31A0943E05
:105920000BFA74BFD47CAC3E080971BF15EFC33EBF
:105930005E836CBF80E8DA3ED86B67BFEA5AF13EFF
:1059400098C561BF3D9C033F1A945BBFDA390E3F97
:1059500031DB54BFC07F183F029F4DBF9967223F84
:1059600003E445BF4AEB2B3FF9AE3DBFF304353F9F
:10597000F30435BFF9AE3D3F4AEB2BBF03E4453F8F
:10598000996722BF029F4D3FC07F18BF31DB543F54
:10599000DA390EBF1A945B3F3D9C03BF98C5613F47
:1059A000EA5AF1BED86B673F80E8DABE5E836C3F8F
:1059B00015EFC3BE0809713FD47CACBE0BFA743F2F
:1059C00031A094BEF853783FCCCF78BEBE147B3F55
:1059D000C2C547BEAC3A7D3F834016BE6DC47E3F14
:1059E00036BDC8BD0FB17F3F2FFB48BD0000803FD3
:1059F0000000000043EC7F3FB00AC93C0FB17F3F7D
:105A00002FFB483D6D4E7F3F05A9963D6DC47E3FFF
:105A100036BDC83D24137E3F73B2FA3DAC3A7D3F9C
:105A20008340163E283B7C3FA2102F3EBE147B3F96
:105A3000C2C5473E9DC7793F135C603EF853783F2F
:105A4000CCCF783E07BA763F938E883E0BFA743FF0
:105A500031A0943E4714733FE59AA03E0809713F78
:105A6000D47CAC3E9ED86E3F2A44B83E5E836C3FE9
:105A700015EFC33EA7096A3FCA7BCF3ED86B673F8D
:105A800080E8DA3E59AA643F7533E63E98C5613F27
:105A9000EA5AF13E05BE5E3F275DFC3E1A945B3F2D
:105AA0003D9C033F5348583F9BF5083F31DB543F33
:105AB000DA390E3F3D4D513F2A68133F029F4D3F5B
:105AC000C07F183F12D1493FD17F1D3F03E4453FBE
:105AD0009967223F70D8413F5636273FF9AE3D3F88
