:020000040800F2
:10000000280400204501000899060008470600085A
:10001000950600085F0400086D100008000000004D
:10002000000000000000000000000000550800086B
:1000300063040008000000003D07000841090008B3
:100040005F0100085F0100085F0100085F01000810
:100050005F0100085F0100085F0100085F01000800
:100060005F0100085F0100085F0100085F010008F0
:100070005F0100085F0100085F0100085F010008E0
:100080005F0100085F0100085F0100085F010008D0
:100090005F0100085F0100085F0100085F010008C0
:1000A0005F0100085F0100085F0100085F010008B0
:1000B0005F0100085F010008E50B00085F01000810
:1000C0005F0100085F0100085F0100085F01000890
:1000D0005F0100085F0100085F0100085F01000880
:1000E0005F0100085F0100085F0100085F01000870
:1000F0005F0100085F0100085F0100085F01000860
:100100005F0100085F0100085F0100085F0100084F
:100110005F0100085F0100084D0C00085F01000846
:100120005F0100085F0100085F0100085F0100082F
:10013000DFF80CD000F036F9004800476D120008D7
:10014000280400200648804706480047FEE7FEE7EF
:10015000FEE7FEE7FEE7FEE7FEE7FEE7FEE7FEE777
:1001600045090008310100082DE9F04D81EA03043A
:1001700004F0004B21F0004514464FF0000A23F034
:10018000004150EA050220D054EA01021DD0C5F317
:100190000A570246C5F31303C1F31300C1F30A560D
:1001A00040F4801543F48013A7EB0608101BD646D5
:1001B00008F2FD3873EB050002D308F1010801E0F5
:1001C00092185B41B8F1000F03DA00200146BDE848
:1001D000F08D00204FF48011064684460EE0171B78
:1001E00073EB050705D3121B63EB050306434CEACB
:1001F000010C49084FEA300092185B4150EA0107B0
:10020000EDD152EA030012D082EA040083EA05012C
:10021000084305D0101BAB4106D20122002306E0A3
:1002200000224FF0004302E06FF0010253101AEB7E
:1002300006004CEB085110EB0A0041EB0B01BDE846
:10024000F04D00F052B80EB540F23341029100215A
:10025000CDE900110A460B4600F056F803B000BD88
:1002600070B5C1F30A5201F000450024C1F3130137
:1002700040F2FF3341F480119A4201DA002070BD50
:1002800040F233439A42A2F2334203DC524200F07E
:100290001CF800E090402C43F1D0404270BD30B5D6
:1002A0000B46014600202022012409E021FA02F534
:1002B0009D4205D303FA02F5491B04FA02F52844CE
:1002C000151EA2F10102F1DC30BD202A04DB203A28
:1002D00021FA02F00021704721FA02F3D040C2F166
:1002E0002002914008431946704710B5141E73F15F
:1002F000000408DA401C41F1000192185B411A43E6
:1003000001D120F0010010BD2DE9F04D92469B4631
:1003100011B1B1FA81F202E0B0FA80F220329046D7
:1003200000F052F804460F4640EA0A0041EA0B0189
:1003300053465A46084313D0114653EA010019D0D8
:10034000C8F140025046FFF7C0FF05460E46504632
:100350005946424600F038F8084305D0012004E031
:1003600020463946BDE8F08D0020054346EAE07698
:100370002C4337430A986305E40AA0EB08000022E7
:10038000FD0A44EA47540A3002D500200146E9E755
:10039000010510196941DDE9084500196941BDE809
:1003A000F04DA2E7064C074D06E0E06840F001037F
:1003B00094E8070098471034AC42F6D3FFF7BCFE30
:1003C0004C1300086C130008202A04DB203A00FAC2
:1003D00002F1002070479140C2F1200320FA03F39C
:1003E00019439040704700000EB50121102000F025
:1003F000A7F940F2E730ADF804004720ADF800005F
:100400006946084800F0EAFC0121064800F032FC89
:1004100001221146034800F0A9FC0121014800F027
:100420002FFC0EBD0010004010B500F003F8FFF7E0
:10043000DBFF10BD08B50121102000F081F9362046
:100440008DF8000000208DF8010003208DF80200D7
:1004500001208DF80300684600F02EF908BD00BFAA
:10046000FEE7704708B50121082000F079F9402027
:10047000ADF8000004208DF803006946014800F043
:1004800053F808BD0008014010B5FFF7EBFF00F07E
:1004900001F810BD00B587B00121042000F050F92B
:1004A0004FF6FF70ADF814004720ADF810000020A3
:1004B000ADF81600ADF812008DF8180004A919481F
:1004C00000F08CFC0020ADF80400ADF8060001201F
:1004D000ADF808000020ADF80A00ADF80C0001A945
:1004E000104800F0EDFB1E208DF8000000208DF874
:1004F000010003208DF8020001208DF803006846FA
:1005000000F0DAF80321074800F0B4FB01220321D0
:10051000044800F02BFC0121024800F0B1FB07B0B9
:1005200000BD0000000800402DE9F0410246002512
:100530000026002000230024002791F803C00CF0BF
:100540000F0591F803C00CF0100CBCF1000F03D0A4
:1005500091F802C04CEA050591F800C0BCF1000F0B
:1005600031D0146800202BE04FF0010C0CFA00F39E
:10057000B1F800C00CEA03069E4220D183004FF080
:100580000F0C0CFA03F7BC4305FA03FC4CEA040415
:1005900091F803C0BCF1280F06D14FF0010C0CFA02
:1005A00000FCC2F814C00AE091F803C0BCF1480F87
:1005B00005D14FF0010C0CFA00FCC2F810C0401C31
:1005C0000828D1D31460B1F800C0BCF1FF0F34DDAE
:1005D000546800202EE000F1080C4FF0010808FAE2
:1005E0000CF3B1F800C00CEA03069E4221D183004F
:1005F0004FF00F0C0CFA03F7BC4305FA03FC4CEA6E
:10060000040491F803C0BCF1280F05D100F1080CD7
:1006100008FA0CF8C2F8148091F803C0BCF1480F36
:1006200007D100F1080C4FF0010808FA0CF8C2F8E5
:100630001080401C0828CED35460BDE8F081416191
:1006400070470161704700BFFEE7000008B5012157
:10065000042000F085F810208DF80300ADF80000AC
:1006600001208DF8020069460148FFF75DFF08BDD3
:100670000008014010B510210148FFF7E2FF10BD4E
:100680000008014010B510210148FFF7D8FF10BD48
:100690000008014000BFFEE7704708B525208DF82F
:1006A000000001208DF801008DF802008DF8030094
:1006B000684600F001F808BD70B5002100230F2244
:1006C000C47804B3154C246804F4E064C4F5E06411
:1006D000210AC1F10403CA40447804FA03F1847882
:1006E0001440214309010E4C0678A155047804F00A
:1006F0001F050124AC4005786D11AD0005F1E02522
:10070000C5F8004109E0047804F01F050124AC405D
:10071000044D0678761145F8264070BD0CED00E0DA
:1007200000E400E080E100E002490143024A116078
:10073000704700000000FA050CED00E07047000073
:1007400029B1064AD2690243044BDA6104E0034A44
:10075000D2698243014BDA61704700000010024009
:1007600029B1064A92690243044B9A6104E0034AA4
:1007700092698243014B9A61704700000010024069
:1007800030B500210022002400232D4D6D6805F0B6
:100790000C0121B1042905D0082923D105E0294DF8
:1007A000056022E0274D05601FE0254D6D6805F4CA
:1007B0007012234D6D6805F48034022505EB9242DA
:1007C0001CB9214D554305600BE01D4D6D6805F4C6
:1007D00000351DB11C4D5543056002E0194D5543D0
:1007E000056002E0174D056000BF00BF144D6D6845
:1007F00005F0F0010909154D6B5C0568DD404560A9
:100800000F4D6D6805F4E061090A104D6B5C456899
:10081000DD4085600A4D6D6805F46051C90A0B4DD5
:100820006B5C4568DD40C560054D6D6805F4404171
:10083000890B074D6B5CC568B5FBF3F5056130BDF1
:100840000010024000127A0000093D000000002064
:1008500010000020704710B500F002F810BD000035
:100860000CB50020019000903348006840F48030BF
:100870003149086000BF3048006800F40030009043
:100880000198401C0190009818B90198B0F5A06F2C
:10089000F1D12948006800F4003010B10120009027
:1008A00001E0002000900098012843D1234800680F
:1008B00040F01000214908600846006820F003005D
:1008C00008600846006840F0020008601A48406866
:1008D000194948600846406848600846406840F446
:1008E000806048600846406820F47C1048600846F4
:1008F000406840F4E81048600846006840F08070A6
:10090000086000BF0C48006800F000700028F9D0B3
:100910000948406820F003000749486008464068DD
:1009200040F00200486000BF0348406800F00C003F
:100930000828F9D10CBD0000001002400020024040
:100940007047000010B51348006840F001001149DD
:10095000086008464068104908400E49486008464B
:1009600000680E4908400B4908600846006820F4FA
:10097000802008600846406820F4FE0048604FF47C
:100980001F008860FFF767FF4FF0006004490860B0
:1009900010BD0000001002400000FFF8FFFFF6FE4F
:1009A00008ED00E0F0B50C46154600220021068C4B
:1009B0004FF6FE773E400684028B018C4FF60C7694
:1009C00032407E1C06EA03162E433243104EB042DC
:1009D0000ED0104EB0420BD0B0F1804F08D00E4E6A
:1009E000B04205D00D4EB04202D00D4EB04206D1FD
:1009F0004FF6FD76314044F00106314305E04FF6F5
:100A0000F576314044F00106314302830184F0BDA4
:100A1000002C014000340140000400400008004068
:100A2000000C0040F0B50C461546002200210026BF
:100A3000078C4FF6EF7C07EA0C070784028B018CCA
:100A40004FF6FF7707EA041640F6FF473A404FF6A5
:100A5000FF7707EA03373A434FF6FF7707EA0527A0
:100A60003A43114FB8420ED0104FB8420BD0B0F1FC
:100A7000804F08D00E4FB84205D00E4FB84202D07A
:100A80000D4FB84206D14FF6DF77394046F01007D8
:100A9000394305E04FF65F77394044F0100739439A
:100AA00002830184F0BD0000002C014000340140AD
:100AB0000004004000080040000C0040F0B50C4667
:100AC0001546002200210026078C4FF6FF6C07EA2E
:100AD0000C070784828B018C4FF6FF7707EA042608
:100AE0004FF60C773A404FF6FF7707EA03172F438C
:100AF0003A43114FB8420ED0104FB8420BD0B0F16C
:100B0000804F08D00E4FB84205D00E4FB84202D0E9
:100B10000D4FB84206D14FF6FF57394046F4807763
:100B2000394305E04FF2FF57394044F480773943A9
:100B300082830184F0BD0000002C0140003401409C
:100B40000004004000080040000C0040F0B50C46D6
:100B50001546002200210026078C4EF6FF7C07EA8E
:100B60000C070784828B018C4FF6FF7707EA043667
:100B700040F6FF473A404FF6FF7707EA05273A432A
:100B80004FF6FF7707EA03373A43114FB8420ED0CA
:100B9000104FB8420BD0B0F1804F08D00E4FB84282
:100BA00005D00E4FB84202D00D4FB84206D14DF6D7
:100BB000FF77394046F48057394305E047F6FF5741
:100BC000394044F48057394382830184F0BD0000EA
:100BD000002C0140003401400004004000080040A7
:100BE000000C004010B50121164800F058F840B143
:100BF00015488088401C144988800121114800F064
:100C00003CF802210F4800F04AF8D0B10E48407875
:100C100050B900210B4800F0B2F800200A49888042
:100C200048800120487008E0064800F035F8064981
:100C3000488000204870012008700221014800F01F
:100C40001CF810BD000800401800002010B501215C
:100C5000064800F024F840B105480088401C0449CB
:100C600008800121014800F008F810BD0010004084
:100C70001E000020CA4302827047CA4302827047A6
:100C800021B1028842F00102028004E002884FF69E
:100C9000FE731A40028070470146888E704730B557
:100CA0000246002000230024158A05EA01039589E5
:100CB00005EA010413B10CB1012000E0002030BDB1
:100CC00070B505460C46244885420ED0234885421F
:100CD0000BD0B5F1804F08D02148854205D021487E
:100CE000854202D02048854200D100E000BF208824
:100CF00050B92389A28861882846FFF753FEE1880E
:100D0000284600F03EF825E0208804280AD12389EF
:100D1000A28861882846FFF785FEE188284600F012
:100D200039F817E0208808280AD12389A288618829
:100D30002846FFF7C3FEE188284600F038F809E0AE
:100D40002389A28861882846FFF700FFE1882846AA
:100D500000F036F870BD0000002C01400034014066
:100D60000004004000080040000C00401AB18389D4
:100D70000B43838102E083898B43838170478184A5
:100D80007047028B4FF6F3731A400283028B0A43BB
:100D900002837047028B4FF2FF331A400283028BAB
:100DA0004FF6FF7303EA01231A4302837047828BD5
:100DB0004FF6F3731A408283828B0A438283704713
:100DC000828B4FF2FF331A408283828B4FF6FF7380
:100DD00003EA01231A43828370470000002202883D
:100DE0001D4B98420ED01D4B98420BD0B0F1804F56
:100DF00008D01B4B984205D01A4B984202D01A4B90
:100E0000984204D14FF68F731A404B881A43174B00
:100E1000984207D0164B984204D04FF6FF431A4031
:100E2000CB881A4302808B8883850B8803850A4B05
:100E300098420BD0094B984208D00E4B984205D0EF
:100E40000D4B984202D00D4B984201D10B7A03868C
:100E50000123838270470000002C014000340140D0
:100E60000004004000080040000C0040001000405A
:100E7000001400400040014000440140004801408F
:100E800021B1828942F40052828104E082894DF6C8
:100E9000FF731A408281704700B585B0012104209C
:100EA000FFF75EFC01218803FFF75AFC4FF4007046
:100EB000ADF8100018208DF8130003208DF81200F3
:100EC00004A91748FFF730FB4FF48060ADF810001D
:100ED00004208DF8130004A91148FFF725FB4FF4F7
:100EE000E13000900020ADF80400ADF80600ADF848
:100EF0000800ADF80C000C20ADF80A00694609485E
:100F000000F044F8FFF7C9FB012240F225510548E3
:100F100000F017F801210348FFF7B2FF05B000BD4C
:100F2000000801400038014002460020B1F5007F72
:100F300000D100BF13880B400BB1012000E000205E
:100F40007047F0B50346002400260025002040F637
:100F50006A17B94200D100BF1846C1F3421401F02C
:100F60001F06012707FA06F5012C01D10C3004E019
:100F7000022C01D1103000E014301AB107682F4361
:100F8000076002E00768AF430760F0BD2DE9F04756
:100F900086B005460E460024A24600BFA1460027A3
:100FA000B08900B100BF2F462C8A4CF6FF70044078
:100FB000F08804432C82AC894EF6F3100440B088CC
:100FC00031890843718908430443AC81AC8A4FF6E8
:100FD000FF400440B0890443AC8201A8FFF7D0FB76
:100FE0001F48874202D1DDF810A001E0DDF80CA017
:100FF000A88900F4004040B10AEBCA0000EB0A10D7
:1010000031684900B0FBF1F807E00AEBCA0000EBD9
:101010000A1031688900B0FBF1F86420B8FBF0F0E9
:1010200004012009642101FB1089A88900F4004013
:1010300040B1322000EBC900B0FBF1F000F0070036
:10104000044308E0322000EB09106421B0FBF1F00A
:1010500000F00F0004432C8106B0BDE8F0870000CB
:1010600000380140C1F308028280704700BFFEE7EC
:1010700010B50E4800880A2817D100200B490880B7
:101080000B48007810B101280ED107E0FFF7FAFAFB
:1010900007480078401C0649087005E0FFF7EAFAA7
:1010A00000200349087000BF00BF10BD1E000020D3
:1010B000200000200FB4054B10B503A9044A029884
:1010C00000F018F810BC5DF814FB0000491200088D
:1010D0002400002002E008C8121F08C1002AFAD12B
:1010E00070477047002001E001C1121F002AFBD1A8
:1010F000704700002DE9FF4F89B09B46044600254C
:1011000006E025280BD05A460B999047641C6D1CAD
:1011100020780028F5D10DB02846BDE8F08F0027D3
:10112000B8460122474900E0074314F8013F203B3D
:1011300002FA03F00842F7D120782E2819D114F8CA
:10114000010F47F004072A280ED06FF02F022078F5
:10115000A0F1300109290CD808EB880102EB41010C
:1011600000EB0108641CF2E70A98641C50F8048B39
:101170000A9020780028CED0642808D0692806D0AC
:1011800075281ED05A460B9990476D1C58E00A9955
:101190004FF00A0901C90A91002802DA40422D21C4
:1011A00002E0390504D52B218DF82010012103E040
:1011B000F90704D02021F7E78A4608AE0DE00021A8
:1011C000FAE70A994FF00A0901C90A91F7E7494677
:1011D000FFF765F8303106F8011D0028F7D1ADEBB7
:1011E000060000F12009780701D44FF00108C84536
:1011F00002DDA8EB090000E000208046002706E0A1
:1012000008A85A46C05D0B9990476D1C7F1C574536
:10121000F6DB04E030205A460B9990476D1CB8F17C
:101220000001A8F10108F5DC05E016F8010B5A46AB
:101230000B9990476D1CB9F10001A9F10109F4DC8B
:10124000641C65E70928010070B504460D46E1B24B
:101250000548FFF707FF00BF80210348FFF764FE42
:101260000028F9D0204670BD003801401CB5224846
:1012700001904FF4E060FFF757FAFFF705F9FFF729
:10128000D3F8FFF709FEFFF7E1F91CA0FFF712FF03
:1012900023A0FFF70FFF2EE0FFF7EAFE24480078B7
:1012A000012828D122484088401C2149898800EB28
:1012B0000140204908600198FEF7C5FF06460F4629
:1012C0001C480068FEF7BFFF804632463B46FEF7EB
:1012D0004BFF044622460B4600201749FEF744FF09
:1012E0008246FEF7BDFF0146009014A0FFF7E2FE24
:1012F00000200F490870CFE740420F000D0AB5E704
:10130000D7D3B4B4D0C2CAB5D1E92053544D333287
:1013100020CAE4C8EBB2B6BBF1CAB5D1E90D0A00E8
:101320000D0ABCC6CBE3C6B5C2CA0D0A0000000058
:1013300018000020140000200000F03F0D0A204893
:101340005AA3BA256420487A0D0A00006C130008DD
:101350000000002028000000D410000894130008AA
:101360002800002000040000E41000080000000035
:101370000102030401020304060708090204060827
:10138000000000000000000000000000000000005D
:041390000000000059
:0400000508000131BD
:00000001FF
