:020000040800F2
:1000000018040020490100089D030008B5020008FB
:10001000990300089101000839050008000000005C
:10002000000000000000000000000000C103000804
:1000300095010008000000009F030008D504000897
:100040006301000863010008630100086301000800
:1000500063010008630100086301000863010008F0
:1000600063010008630100086301000863010008E0
:1000700063010008630100086301000863010008D0
:1000800063010008630100086301000863010008C0
:1000900063010008630100086301000863010008B0
:1000A00063010008630100086301000863010008A0
:1000B0006301000863010008630100086301000890
:1000C0006301000863010008630100086301000880
:1000D0006301000863010008630100086301000870
:1000E0006301000863010008630100086301000860
:1000F0006301000863010008630100086301000850
:10010000630100086301000863010008630100083F
:10011000630100086301000863010008630100082F
:10012000630100086301000863010008630100081F
:10013000DFF810D000F01AF800480047ED0500087D
:10014000AFF30080180400200648804706480047A7
:10015000FEE7FEE7FEE7FEE7FEE7FEE7FEE7FEE777
:10016000FEE7FEE7D904000831010008064C074D00
:1001700006E0E06840F0010394E807009847103477
:10018000AC42F6D3FFF7D8FF7806000898060008BF
:1001900000BFFEE770472DE9F0410246002500262A
:1001A000002000230024002791F803C00CF00F0565
:1001B00091F803C00CF0100CBCF1000F03D091F8C3
:1001C00002C04CEA050591F800C0BCF1000F31D027
:1001D000146800202BE04FF0010C0CFA00F3B1F88A
:1001E00000C00CEA03069E4220D183004FF00F0CA2
:1001F0000CFA03F7BC4305FA03FC4CEA040491F83B
:1002000003C0BCF1280F06D14FF0010C0CFA00FC22
:10021000C2F814C00AE091F803C0BCF1480F05D140
:100220004FF0010C0CFA00FCC2F810C0401C08286A
:10023000D1D31460B1F800C0BCF1FF0F34DD5468B5
:1002400000202EE000F1080C4FF0010808FA0CF332
:10025000B1F800C00CEA03069E4221D183004FF0A2
:100260000F0C0CFA03F7BC4305FA03FC4CEA040438
:1002700091F803C0BCF1280F05D100F1080C08FA71
:100280000CF8C2F8148091F803C0BCF1480F07D1F4
:1002900000F1080C4FF0010808FA0CF8C2F81080C1
:1002A000401C0828CED35460BDE8F08141617047FE
:1002B0000161704700BFFEE710B502210148FFF75A
:1002C000F7FF10BD000C014010B502210148FFF7F7
:1002D000EDFF10BD000C014008B50121082000F021
:1002E0005FF810208DF803000220ADF80000012017
:1002F0008DF8020069460248FFF74DFF08BD000077
:10030000000C014008B50121082000F049F8102038
:100310008DF803000120ADF800008DF80200694659
:100320000148FFF738FF08BD000C014008B5012166
:10033000082000F035F810208DF803002020ADF8DB
:10034000000001208DF8020069460248FFF723FFF4
:1003500008BD0000000C014010B501210148FFF765
:10036000A7FF10BD000C014010B501210148FFF7A7
:100370009DFF10BD000C014010B520210148FFF782
:1003800097FF10BD000C014010B520210148FFF778
:100390008DFF10BD000C014000BFFEE770477047A5
:1003A00029B1064A92690243044B9A6104E0034A68
:1003B00092698243014B9A6170470000001002402D
:1003C000704710B500F002F810BD00000CB5002019
:1003D000019000903348006840F480303149086053
:1003E00000BF3048006800F4003000900198401CC5
:1003F0000190009818B90198B0F5A06FF1D1294883
:10040000006800F4003010B10120009001E00020ED
:1004100000900098012843D12348006840F0100064
:10042000214908600846006820F00300086008467B
:10043000006840F0020008601A48406819494860A6
:100440000846406848600846406840F4806048605C
:100450000846406820F47C1048600846406840F434
:10046000E81048600846006840F08070086000BFEF
:100470000C48006800F000700028F9D00948406876
:1004800020F00300074948600846406840F0020039
:10049000486000BF0348406800F00C000828F9D10C
:1004A0000CBD00000010024000200240042808D1CA
:1004B0004FF0E021096941F004014FF0E0221161A1
:1004C00007E04FF0E021096921F004014FF0E0223C
:1004D000116170477047000010B51348006840F084
:1004E00001001149086008464068104908400E495B
:1004F0004860084600680E4908400B4908600846F5
:10050000006820F4802008600846406820F4FE005F
:1005100048604FF41F008860FFF753FF4FF0006002
:100520000449086010BD0000001002400000FFF800
:10053000FFFFF6FE08ED00E000BFFEE702E008C89E
:10054000121F08C1002AFAD170477047002001E04D
:1005500001C1121F002AFBD17047000010B56FF0D7
:100560000400FFF7A3FF0A4800680A49B0FBF1F056
:10057000094908700846007800EB4001C1EBC01043
:100580004FF6FF7101EAC0000449088010BD000069
:100590000000002000127A00140000201600002045
:1005A0000146114A12884A434FF0E0235A61002263
:1005B0009A611A46126942F001021A6100BF4FF0B7
:1005C000E022106900F001021AB100F48032002A22
:1005D000F5D04FF0E022126922F001024FF0E02343
:1005E0001A6100229A61704716000020FFF79EFEF4
:1005F000FFF788FEFFF770FEFFF7B0FF3BE0FFF765
:10060000BBFEFFF7A9FEFFF757FE4FF47A70FFF726
:10061000C7FFFFF759FE4FF47A70FFF7C1FFFFF7EE
:10062000A3FEFFF749FE4FF47A70FFF7B9FFFFF71B
:100630004BFE4FF47A70FFF7B3FFFFF7A5FEFFF70D
:100640008BFEFFF739FE4FF47A70FFF7A9FFFFF733
:100650003BFE4FF47A70FFF7A3FFFFF785FEFFF72D
:100660002BFE4FF47A70FFF79BFFFFF72DFE4FF440
:100670007A70FFF795FFC2E7980600080000002097
:10068000180000003C050008B00600081800002013
:10069000000400004C05000800A24A04000000000D
:1006A0000000000001020304060708090000000022
:0400000508000131BD
:00000001FF
