:020000040800F2
:100000002004002049010008BB090008B3090008CA
:10001000B709000893070008031300080000000058
:10002000000000000000000000000000B90B000804
:100030009707000800000000610A0008A50C0008EE
:100040006301000863010008630100086301000800
:1000500063010008630100086301000863010008F0
:1000600063010008630100086301000863010008E0
:1000700063010008630100086301000863010008D0
:1000800063010008630100086301000863010008C0
:1000900063010008630100086301000863010008B0
:1000A00063010008630100086301000863010008A0
:1000B000090D0008630100086301000863010008DE
:1000C0006301000863010008630100086301000880
:1000D000630100089510000863010008630100082F
:1000E0006301000863010008630100086301000860
:1000F0006301000863010008630100086301000850
:10010000630100086301000863010008630100083F
:10011000630100086301000863010008630100082F
:10012000630100086301000863010008630100081F
:10013000DFF810D000F0EAFA00480047411C000840
:10014000AFF300802004002006488047064800479F
:10015000FEE7FEE7FEE7FEE7FEE7FEE7FEE7FEE777
:10016000FEE7FEE7A90C0008310100082DE9F04D7B
:1001700081EA030404F0004B21F0004514464FF0DF
:10018000000A23F0004150EA050220D054EA01029F
:100190001DD0C5F30A570246C5F31303C1F313007C
:1001A000C1F30A5640F4801543F48013A7EB060808
:1001B000101BD64608F2FD3873EB050002D308F198
:1001C000010801E092185B41B8F1000F03DA00204A
:1001D0000146BDE8F08D00204FF4801106468446AC
:1001E0000EE0171B73EB050705D3121B63EB05032A
:1001F00006434CEA010C49084FEA300092185B4173
:1002000050EA0107EDD152EA030012D082EA04005D
:1002100083EA0501084305D0101BAB4106D2012239
:10022000002306E000224FF0004302E06FF00102DD
:1002300053101AEB06004CEB085110EB0A0041EB8F
:100240000B01BDE8F04D00F0BAB80EB540F23341F5
:1002500002910021CDE900110A460B4600F0BEF8DC
:1002600003B000BD00F0004230F000400AD0C10DE4
:1002700001F56071C0F3160042EA0151C20840075F
:100280001143704700200146704701F0004330B42D
:1002900021F0004150EA010206D00A0DA2F5607279
:1002A000C1F31301002A02DC30BC00207047440F68
:1002B00044EAC104C100E01830BC00EBC25000F0B9
:1002C00047B830B50B46014600202022012409E042
:1002D00021FA02F59D4205D303FA02F5491B04FAFF
:1002E00002F52844151EA2F10102F1DC30BD2DE912
:1002F000F05F0546002092469B46884606468146AA
:1003000040241BE0284641464746224600F01FFA9B
:1003100053465A46C01A914110D3114618462246F8
:1003200000F006FA2D1A67EB01084F46224601201D
:10033000002100F0FDF917EB00094E41201EA4F149
:100340000104DFDC484631462A464346BDE8F09FBB
:100350000029A8BF7047401C490008BF20F00100D9
:10036000704710B4B0FA80FC00FA0CF050EA0104B7
:1003700004BF10BC704749B1CCF1200421FA04F449
:1003800011FA0CF118BF012121430843A3EB0C0122
:10039000CB1D4FEA00614FEA102042BF002010BC85
:1003A000704700EBC35010440029A4BF10BC704735
:1003B000401C490008BF20F0010010BC704710B578
:1003C000141E73F1000408DA401C41F10001921878
:1003D0005B411A4301D120F0010010BD2DE9F04D21
:1003E00092469B4611B1B1FA81F202E0B0FA80F276
:1003F0002032904600F09CF904460F4640EA0A007D
:1004000041EA0B0153465A46084313D0114653EABA
:10041000010019D0C8F14002504600F098F9054695
:100420000E4650465946424600F082F9084305D030
:10043000012004E020463946BDE8F08D0020054348
:1004400046EAE0762C4337430A986305E40AA0EBBA
:1004500008000022FD0A44EA47540A3002D5002071
:100460000146E9E7010510196941DDE90845001970
:100470006941BDE8F04DA2E72DE9FE4F804681EAD3
:100480000300C00F0C46009021F0004123F000450E
:10049000B8EB0200A94105D24046214690461C46D1
:1004A0000B46024623F00040104347D0270DC7F308
:1004B0000A00C3F30A510290401A019040286BDAF7
:1004C000C3F3130040F4801B0098924620B1002330
:1004D000D2EB030A63EB0B0B01985946C0F14002C3
:1004E000504600F025F906460D4650465946019AF9
:1004F00000F03DF910EB08006141002487EA115239
:1005000084EAE7731A4340D0009A62B3019A012A41
:100510004FEA075215DC001B61EB02014FF000426D
:1005200002EA0752CDE90042001C41F58011324633
:100530002B46FFF753FF03B0BDE8F08F404621463E
:10054000F9E7001B61EB0201001C41F58013001864
:100550005B412018A2F5001747EB030140EAD57074
:10056000B6196D4111E06D084FEA360645EAC075CF
:100570004FEA0752001B61EB0201001C41F580119C
:1005800049084FEA30000019514132462B4603B06A
:10059000BDE8F04FFFF713BF009801224000002391
:1005A000D0EB020263EBE073009821464FEAE0745F
:1005B000B8EB000061EB0401E9E783F000435BE77F
:1005C00081F0004158E72DE9FE4F81EA030404F071
:1005D000004421F0004100944FF0000B23F0004351
:1005E00050EA01045ED052EA03045BD0C3F30A541C
:1005F000C1F30A552C44A4F2F3340194A0FB025435
:10060000C1F3130141F48011C3F3130343F48013C6
:1006100001FB024400FB034E840A970A44EA81541A
:1006200047EA8357A4FB076802958D0A05FB0785F7
:100630004FEA932C04FB0C542705029D4FEA065801
:1006400047EA1637B5EB08056EEB070C870E920EDE
:1006500047EA811742EA8312A7FB0201B6EB0B01BE
:1006600064EB00042B0D43EA0C335E1844EB1C5082
:10067000DA465146E7FB0201C5F313044FEA0B3398
:1006800043EA14534FEA0432019C43EA0603A4F1FF
:100690000C040294009CCDE900B4FFF79FFE03B068
:1006A000BDE8F08F00200146F9E7C1F30A52C1F31B
:1006B000130140F2FF3341F480119A4202DA002024
:1006C0000146704740F233439A42A2F2334202DCC1
:1006D000524200F03CB800F02BB8000030B5041EC8
:1006E00071F1000404DB4FF00044404264EB01016F
:1006F000141E73F1000405DB1C464FF00043524208
:1007000063EB0403994208BF904230BD064C074D8D
:1007100006E0E06840F0010394E8070098471034D1
:10072000AC42F6D3FFF708FDAC1C0008CC1C000857
:10073000202A04DB203A00FA02F1002070479140A1
:10074000C2F1200320FA03F3194390407047202A96
:1007500004DB203A21FA02F00021704721FA02F36B
:10076000D040C2F120029140084319467047202A28
:1007700006DBCB17203A41FA02F043EAE07306E0C9
:1007800041FA02F3D040C2F12002914008431946D9
:10079000704700BFFEE7704708B50121202000F038
:1007A00081F90420ADF800008DF803006946024885
:1007B00000F074F808BD00000014014010B5FFF708
:1007C000EBFF00F02FF800F001F810BD0EB501218D
:1007D000022000F047F9124800F0D2FA00234FF44B
:1007E000004219460E4800F0BFFB4FF6FE70ADF810
:1007F00004000020ADF80000ADF80600ADF80200DE
:100800008DF808006946064800F0F2FB0021044814
:1008100000F0EBFB0121024800F0A6FA0EBD00003B
:10082000000400401FB50121084600F01BF94FF0FD
:10083000804000F0A5FA4FF0804000F0D0FB4FF46C
:10084000FA60ADF8080041F61F40ADF80400002042
:10085000ADF80A00ADF8060001A94FF0804000F0A5
:10086000C7FB1C208DF8000000208DF8010003203C
:100870008DF8020001208DF80300684600F0AEF804
:100880000121880700F06AFA01221146900700F062
:100890009DFB0121880700F067FA1FBD2DE9F0419B
:1008A000024600250026002000230024002791F89E
:1008B00003C00CF00F0591F803C00CF0100CBCF154
:1008C000000F03D091F802C04CEA050591F800C072
:1008D000BCF1000F31D0146800202BE04FF0010C68
:1008E0000CFA00F3B1F800C00CEA03069E4220D1D6
:1008F00083004FF00F0C0CFA03F7BC4305FA03FC1E
:100900004CEA040491F803C0BCF1280F06D14FF063
:10091000010C0CFA00FCC2F814C00AE091F803C004
:10092000BCF1480F05D14FF0010C0CFA00FCC2F8E5
:1009300010C0401C0828D1D31460B1F800C0BCF12D
:10094000FF0F34DD546800202EE000F1080C4FF05A
:10095000010808FA0CF3B1F800C00CEA03069E4245
:1009600021D183004FF00F0C0CFA03F7BC4305FABA
:1009700003FC4CEA040491F803C0BCF1280F05D134
:1009800000F1080C08FA0CF8C2F8148091F803C0C2
:10099000BCF1480F07D100F1080C4FF0010808FA2C
:1009A0000CF8C2F81080401C0828CED35460BDE873
:1009B000F08100BFFEE700BFFEE7704708B52520C5
:1009C0008DF8000001208DF801008DF802008DF8EF
:1009D0000300684600F002F808BD000070B5002171
:1009E00000230F22C47804B3154C246804F4E06497
:1009F000C4F5E064210AC1F10403CA40447804FA52
:100A000003F184781440214309010E4C0678A15566
:100A1000047804F01F050124AC4005786D11AD0089
:100A200005F1E025C5F8004109E0047804F01F0550
:100A30000124AC40044D0678761145F8264070BD7F
:100A40000CED00E000E400E080E100E00249014339
:100A5000024A1160704700000000FA050CED00E04A
:100A60007047000029B1064AD2690243044BDA619B
:100A700004E0034AD2698243014BDA617047000007
:100A80000010024029B1064A12690243044B1A6160
:100A900004E0034A12698243014B1A617047000067
:100AA0000010024029B1064A92690243044B9A6140
:100AB00004E0034A92698243014B9A617047000047
:100AC0000010024029B1064AD2680243044BDA60A2
:100AD00004E0034AD2688243014BDA6070470000A9
:100AE0000010024030B500210022002400232D4DCB
:100AF0006D6805F00C0121B1042905D0082923D126
:100B000005E0294D056022E0274D05601FE0254DD9
:100B10006D6805F47012234D6D6805F4803402256C
:100B200005EB92421CB9214D554305600BE01D4D6C
:100B30006D6805F400351DB11C4D5543056002E09C
:100B4000194D5543056002E0174D056000BF00BF19
:100B5000144D6D6805F0F0010909154D6B5C0568D1
:100B6000DD4045600F4D6D6805F4E061090A104DE8
:100B70006B5C4568DD4085600A4D6D6805F4605129
:100B8000C90A0B4D6B5C4568DD40C560054D6D685D
:100B900005F44041890B074D6B5CC568B5FBF3F567
:100BA000056130BD0010024000127A0000093D00CE
:100BB0000000002010000020704710B500F002F87F
:100BC00010BD00000CB50020019000903348006873
:100BD00040F480303149086000BF3048006800F4BC
:100BE000003000900198401C0190009818B90198BD
:100BF000B0F5A06FF1D12948006800F4003010B1C1
:100C00000120009001E0002000900098012843D1CD
:100C10002348006840F01000214908600846006839
:100C200020F0030008600846006840F002000860F9
:100C30001A484068194948600846406848600846B4
:100C4000406840F4806048600846406820F47C10AA
:100C500048600846406840F4E8104860084600686C
:100C600040F08070086000BF0C48006800F0007021
:100C70000028F9D00948406820F00300074948607F
:100C80000846406840F00200486000BF03484068E2
:100C900000F00C000828F9D10CBD00000010024043
:100CA000002002407047000010B51348006840F073
:100CB00001001149086008464068104908400E4983
:100CC0004860084600680E4908400B49086008461D
:100CD000006820F4802008600846406820F4FE0088
:100CE00048604FF41F008860FFF767FF4FF0006017
:100CF0000449086010BD0000001002400000FFF829
:100D0000FFFFF6FE08ED00E02DE9F0410121880724
:100D100000F04BF9B8B10121880700F022F80B4828
:100D200000F040F98046FFF790FA0646084A094B62
:100D3000FFF71CFA0446FFF7A8FA074908600021EC
:100D4000024800F052F9BDE8F081000000040040C4
:100D50009A9999999999C93F14000020CA4302822F
:100D60007047CA430282704721B1028842F00102F3
:100D7000028004E002884FF6FE731A40028070473A
:100D800010B504466848844208D10121C014FFF719
:100D900099FE0021E014FFF795FEC4E0B4F1804F06
:100DA00008D101210846FFF76DFE00210120FFF761
:100DB00069FEB8E05D48844208D101210220FFF7B6
:100DC00061FE00210220FFF75DFEACE0584884423E
:100DD00008D101210420FFF755FE00210420FFF770
:100DE00051FEA0E05348844208D101210820FFF7BA
:100DF00049FE00210820FFF745FE94E04E4884425A
:100E000008D101211020FFF73DFE00211020FFF73F
:100E100039FE88E04948844208D101212020FFF7AB
:100E200031FE00212020FFF72DFE7CE04448844263
:100E300008D101214014FFF745FE00216014FFF79F
:100E400041FE70E03F48844209D10121C804FFF708
:100E500039FE00214FF40020FFF734FE63E03A48EA
:100E6000844209D101210805FFF72CFE00214FF42F
:100E70008010FFF727FE56E03448844209D1012153
:100E80004805FFF71FFE00214FF40010FFF71AFE80
:100E900049E02F48844208D101214020FFF7F2FDAC
:100EA00000214020FFF7EEFD3DE02A48844208D1B2
:100EB00001218020FFF7E6FD00218020FFF7E2FD01
:100EC00031E02548844208D101218015FFF7DAFD81
:100ED0000021A015FFF7D6FD25E02048844209D166
:100EE00001210804FFF7EEFD00214FF48030FFF7E9
:100EF000E9FD18E01A48844209D101214804FFF7AE
:100F0000E1FD00214FF40030FFF7DCFD0BE0154858
:100F1000844208D101218804FFF7D4FD00214FF459
:100F20008020FFF7CFFD10BD002C014000040040E1
:100F300000080040000C0040001000400014004079
:100F400000340140004C0140005001400054014079
:100F500000180040001C00400020004000400140FC
:100F60000044014000480140F0B504460D461646D5
:100F70001F463B4632462946204600F005F82089A8
:100F800040F480402081F0BD30B50C46002101893D
:100F9000C9B24FF6FF7505EA0325154325432943DA
:100FA000018130BD0146888C704730B50246002073
:100FB00000230024158A05EA0103958905EA010446
:100FC00013B10CB1012000E0002030BD1AB18389BB
:100FD0000B43838102E083898B43838170470189BE
:100FE0004FF6F8721140018170478184704700000C
:100FF000002202881D4B98420ED01D4B98420BD008
:10100000B0F1804F08D01B4B984205D01A4B984244
:1010100002D01A4B984204D14FF68F731A404B8876
:101020001A43174B984207D0164B984204D04FF6FC
:10103000FF431A40CB881A4302808B8883850B8834
:1010400003850A4B98420BD0094B984208D00E4BAF
:10105000984205D00D4B984202D00D4B984201D1D9
:101060000B7A03860123838270470000002C014025
:10107000003401400004004000080040000C004023
:1010800000100040001400400040014000440140B6
:101090000048014010B540F22551064800F06DF8B7
:1010A00038B1044800F024F9C4B22146014800F0E8
:1010B00024F910BD0038014021B1828942F4005268
:1010C000828104E082894DF6FF731A408281704765
:1010D00000B585B001210420FFF7E4FC012188035D
:1010E000FFF7E0FC4FF40070ADF8100018208DF809
:1010F000130003208DF8120004A91748FFF7CEFB58
:101100004FF48060ADF8100004208DF8130004A99E
:101110001148FFF7C3FB4FF4E13000900020ADF819
:101120000400ADF80600ADF80800ADF80C000C2086
:10113000ADF80A006946094800F06EF8FFF73EFC7A
:10114000012240F22551054800F041F801210348F1
:10115000FFF7B2FF05B000BD0008014000380140B4
:1011600002460020B1F5007F00D100BF13880B407C
:101170000BB1012000E00020704770B5024600244A
:1011800000230025002040F66A16B14200D100BFBE
:10119000C1F3421501F01F03012606FA03F3012DE6
:1011A00002D19689334006E0022D02D1168A3340DF
:1011B00001E0968A33400C12012606FA04F41688E0
:1011C000344013B10CB1012000E0002070BDF0B537
:1011D0000346002400260025002040F66A17B94285
:1011E00000D100BF1846C1F3421401F01F060127C9
:1011F00007FA06F5012C01D10C3004E0022C01D1D4
:10120000103000E014301AB107682F43076002E085
:101210000768AF430760F0BD2DE9F04786B005468B
:101220000E460024A24600BFA1460027B08900B1A7
:1012300000BF2F462C8A4CF6FF700440F088044310
:101240002C82AC894EF6F3100440B08831890843F3
:10125000718908430443AC81AC8A4FF6FF400440D7
:10126000B0890443AC8201A8FFF73CFC1F488742C9
:1012700002D1DDF810A001E0DDF80CA0A88900F48F
:10128000004040B10AEBCA0000EB0A103168490087
:10129000B0FBF1F807E00AEBCA0000EB0A10316876
:1012A0008900B0FBF1F86420B8FBF0F004012009DC
:1012B000642101FB1089A88900F4004040B132206C
:1012C00000EBC900B0FBF1F000F00700044308E0B8
:1012D000322000EB09106421B0FBF1F000F00F00A8
:1012E00004432C8106B0BDE8F087000000380140BF
:1012F00001468888C0F308007047C1F30802828065
:10130000704700BFFEE770B504460D4629462046EB
:10131000FFF7F3FF00BF80212046FFF721FF0028E1
:10132000F9D070BD70B506460C46002500BF615D62
:101330003046FFF7E8FF6D1C605D0028F7D100BF65
:1013400040213046FFF70CFF0028F9D070BD0000A7
:101350000FB4054B10B503A9044A029800F0DAF85F
:1013600010BC5DF814FB00001D1C000818000020D4
:1013700002E008C8121F08C1002AFAD1704770475E
:10138000002001E001C1121F002AFBD170470000BC
:101390002DE9FF5F82B00021DDE90430020DDDF8A8
:1013A00040B0034318D044F61050A2F2FF3242433B
:1013B0001514119801281FD0A5EB0B00401C5FEA03
:1013C000000A4FF000064E4FDFF83891B046504605
:1013D00015D5CAF1000413E0119801244AA301288D
:1013E00001D16FEA0B010298119AC0E90031C0E9FE
:1013F000024206B0BDE8F09FCBF10000DFE70446F3
:101400000021404A491842EB0450CDE9001012E097
:10141000E00707D032463B4640464946FFF7D3F83F
:101420008046894632463B4610461946FFF7CBF8C0
:1014300006460F466410002CEAD1DDE90401DDE91F
:101440000023BAF1000F06DAFFF7BDF842464B461B
:10145000FFF7B9F805E0FEF789FE42464B46FEF776
:1014600085FE04460E460022284BFFF737F903D8C5
:101470004FF0FF30014607E00022254B2046314661
:10148000FEF7FAFFFFF711F9102409E0002C0ADB40
:101490000A220023FEF72BFF039B30321A55641EED
:1014A00050EA0102F2D1641C039AC4F111031444FE
:1014B000119A012A03D0012208430DD10AE0084302
:1014C00004D000204FF0110B119072E7A3EB0B0535
:1014D0006D1E0DE05B4504DD4FF0000205F10105D6
:1014E00004E003DA4FF00002A5F10105002AECD078
:1014F00002981199C0E90231C0E9004579E700007E
:10150000000014400000F03F300000000000F043F5
:101510000000E03F2DE9FF4F95B09A468846064609
:101520000025EEE1252877D100242746F94A01213C
:10153000039400E0044316F8013F203B01FA03F056
:101540001042F7D130782A2811D06FF02F0330786D
:10155000A0F13002092A16D8039A44F0020402EBE3
:10156000820203EB42021044761C0390EFE758F826
:10157000042B0392002A03DA504244F400540390EF
:1015800044F00204761C30782E2816D116F8010F8C
:1015900044F004042A280DD06FF02F023078A0F117
:1015A0003003092B09D807EB870302EB4303C71865
:1015B000761CF3E758F8047B761C30786C280FD043
:1015C00006DC4C2817D068280DD06A2814D104E016
:1015D000742810D07A280FD10DE044F400140AE0EA
:1015E00044F4801401E044F440147278824202D141
:1015F00004F58014761C761C307866280BD013DC3A
:10160000582877D009DC002875D04528F6D0462820
:10161000F4D047281AD193E118E0632835D0642824
:1016200079D0652812D18BE1702873D008DC672847
:10163000F1D069286FD06E280DD06F2806D1ACE0AC
:1016400073282CD0752874D0782853D05246179917
:1016500090476D1C54E1C4F30250022809D00328BE
:101660000DD0D8F8001004280DD00D6008F1040842
:1016700046E1D8F80010EA17C1E90052F6E7D8F8B9
:1016800000100D80F2E70D70F0E718F8041B8DF8DC
:10169000001000208DF80100EB46012003E058F80F
:1016A00004BB4FF0FF3061074FF0000102D40DE0A2
:1016B00009F101018946B9420FDA8145F8DB1BF8CF
:1016C00009100029F4D108E009F10101894681429D
:1016D000FADB1BF809100029F6D103985346A0EB5A
:1016E000090721463846179A00F080FA284400EB93
:1016F000090507E044E008E10DE01BF8010B524644
:1017000017999047B9F10109F7D253462146384657
:10171000179AF2E039E00A21C4F302524FF0000BAD
:101720000091022A06D058F8040BC117032A09D0E9
:101730000AE023E008F1070020F00702F2E80201C6
:10174000904605E000B2C117042A01D140B2C1178A
:10175000002906DA0A460021404261EB02012D22EF
:1017600002E0220504D52B228DF80420012203E09B
:10177000E20701D02022F7E7914657E00A2100E076
:1017800010214FF0000B00910BE010214FF0000BE7
:1017900044F004040827009103E008204FF0000BF8
:1017A0000090C4F30252022A05D058F8040B00211D
:1017B000032A08D008E008F1070020F00702F2E849
:1017C0000201904603E080B2042A00D1C0B24FF07B
:1017D000000922072AD53278702A07D0DDF800C028
:1017E0008CF0100C5CEA0B0C05D00EE040228DF85A
:1017F0000420012208E050EA010306D030238DF8CE
:1018000004308DF8052002229146009B83F00803E6
:1018100053EA0B030AD150EA010201D1620705D550
:1018200030228DF804204FF001097F1E3278582AAB
:1018300004D039A20C920CAA02920BE03BA2F9E769
:101840005B46009AFEF753FD0C9B9B5C029A521E6E
:101850000292137050EA0102F2D1029804A9081A08
:1018600000F1200B600702D524F4803400E001274A
:101870005F4502DDA7EB0B0000E0002000EB0B0151
:10188000009003984944401A0390E00306D453465D
:101890002146179A039800F0A9F90544002706E0AD
:1018A00001A85246C05D179990476D1C7F1C4F459B
:1018B000F6DBE0030CD553462146179A039800F057
:1018C00095F9054404E030205246179990476D1C65
:1018D0000099481E00900029F5DC08E00298029962
:1018E00052460078491C0291179990476D1CBBF134
:1018F0000001ABF1010BF1DC5BE100F065F905449F
:10190000761C307800287FF40DAE19B02846BDE86B
:10191000F08F00000928010030313233343536377A
:10192000383961626364656600000000303132332B
:1019300034353637383941424344454600000000CB
:10194000600700D4062708F1070020F00700F0E840
:101950000223804603F0004C5FEA0C0001D097A000
:1019600009E0200501D596A005E0E00701D095A08B
:1019700001E0AFF24C001390307823F0004365286B
:101980000CD006DC452809D046281DD047287FD139
:101990003BE0662818D067287AD136E00021112F65
:1019A00001DB112000E0781CCDE9000104A90CA89E
:1019B000FFF7EEFCDDE90D010C9A4FF0000B07F18B
:1019C0000109109200914EE04FF000400097CDE9E0
:1019D000011004A90CA8FFF7DBFCDDE90D020C9B4C
:1019E0000F994FF0000B91461093009211B9791C9A
:1019F00000EB0109B7EB090003D4C0F1FF3B07F18D
:101A00000109A9EB0700019042E0012F00DA01274C
:101A10000021112F01DD112000E03846CDE9000141
:101A200004A90CA8FFF7B4FCDDE90D010C9A0091A4
:101A30004FF0000BB946109221070FD4009A4A4587
:101A400003DA914601E0A9F10109B9F1010F05DDC1
:101A5000109AA9F10101515C3029F4D0B84202DAA0
:101A600010F1040F03DA0121CDE9011010E0002884
:101A700003DC8344A9EB000102E0411C494500DD81
:101A80008946A0EB0B00401C01904FF000400290F3
:101A9000200705D40198484502DB4FF0FF30019044
:101AA00000208DF84B0002980DF14B07B0F1004F6C
:101AB00025D002200C902B200D90029800280CDAE3
:101AC000404202902D200D9007E00A210298FEF777
:101AD000F8FB3031029007F8011D0C99481E0C905C
:101AE0000029F2DC02980028EFD1791E0D980870C9
:101AF000307800F0200040F0450007F8020D11A8F2
:101B0000C01BC01D02901398007800B1012000EBAB
:101B10000901019801EBE071029801440398401A11
:101B2000401E0390E00306D453462146179A0398BB
:101B300000F05CF805441398007818B152461799E4
:101B400090476D1CE00323D553462146179A03980E
:101B500000F04CF805441BE0BBF1000F07DB0098D8
:101B6000584504DD1098179910F80B0001E01799FB
:101B700030205246904701980BF1010B401E05F1B1
:101B80000105019004D12E205246179990476D1CF3
:101B9000B9F10001A9F10109DEDC05E017F8010B3C
:101BA0005246179990476D1C0299481E02900029D1
:101BB000F4DC53462146179A03989EE62D00000058
:101BC0002B000000200000002DE9F0410446002514
:101BD0001E461746880404D405E039462020B04745
:101BE0006D1C641EF9D52846BDE8F0812DE9F04151
:101BF000044600251E469046C80301D5302700E064
:101C00002027880404D505E041463846B0476D1CBE
:101C1000641EF9D52846BDE8F081000070B5044681
:101C20000D46E1B20548FFF768FB00BF802103487D
:101C3000FFF796FA0028F9D0204670BD0038014021
:101C40004FF4E060FEF702FFFEF7B8FDFFF740FA41
:101C50000DE007A10948FFF765FB09480068FEF79A
:101C600001FB044622460B4606A0FFF771FBF0E796
:101C70000A48656C6C6F210A0000000000380140C2
:101C8000140000204672657175656E6379206F6679
:101C90002074686520696E707574207369676E6161
:101CA0006C206973200A25660D000000CC1C00081A
:101CB000000000201C00000070130008E81C000851
:101CC0001C00002004040000801300080000000035
:101CD00001020304010203040607080902040608BE
:081CE0000000000000000000FC
:0400000508000131BD
:00000001FF
